{
  "_format": "hh-sol-artifact-1",
  "contractName": "LaBolita",
  "sourceName": "contracts/LaBolita.sol",
  "abi": [
    {
      "inputs": [
        {
          "internalType": "address",
          "name": "_paymentToken",
          "type": "address"
        }
      ],
      "stateMutability": "nonpayable",
      "type": "constructor"
    },
    {
      "inputs": [],
      "name": "EnforcedPause",
      "type": "error"
    },
    {
      "inputs": [],
      "name": "ExpectedPause",
      "type": "error"
    },
    {
      "inputs": [
        {
          "internalType": "address",
          "name": "owner",
          "type": "address"
        }
      ],
      "name": "OwnableInvalidOwner",
      "type": "error"
    },
    {
      "inputs": [
        {
          "internalType": "address",
          "name": "account",
          "type": "address"
        }
      ],
      "name": "OwnableUnauthorizedAccount",
      "type": "error"
    },
    {
      "inputs": [],
      "name": "ReentrancyGuardReentrantCall",
      "type": "error"
    },
    {
      "inputs": [
        {
          "internalType": "address",
          "name": "token",
          "type": "address"
        }
      ],
      "name": "SafeERC20FailedOperation",
      "type": "error"
    },
    {
      "anonymous": false,
      "inputs": [
        {
          "indexed": true,
          "internalType": "address",
          "name": "admin",
          "type": "address"
        },
        {
          "indexed": false,
          "internalType": "bool",
          "name": "status",
          "type": "bool"
        }
      ],
      "name": "AdminUpdated",
      "type": "event"
    },
    {
      "anonymous": false,
      "inputs": [
        {
          "indexed": true,
          "internalType": "uint256",
          "name": "drawId",
          "type": "uint256"
        },
        {
          "indexed": false,
          "internalType": "string",
          "name": "drawType",
          "type": "string"
        },
        {
          "indexed": false,
          "internalType": "uint256",
          "name": "scheduledTime",
          "type": "uint256"
        }
      ],
      "name": "AutoDrawCreated",
      "type": "event"
    },
    {
      "anonymous": false,
      "inputs": [
        {
          "indexed": true,
          "internalType": "uint256",
          "name": "betId",
          "type": "uint256"
        },
        {
          "indexed": true,
          "internalType": "address",
          "name": "player",
          "type": "address"
        },
        {
          "indexed": true,
          "internalType": "uint256",
          "name": "drawId",
          "type": "uint256"
        },
        {
          "indexed": false,
          "internalType": "enum LaBolita.BetType",
          "name": "betType",
          "type": "uint8"
        },
        {
          "indexed": false,
          "internalType": "string",
          "name": "numbers",
          "type": "string"
        },
        {
          "indexed": false,
          "internalType": "uint256",
          "name": "amount",
          "type": "uint256"
        }
      ],
      "name": "BetPlaced",
      "type": "event"
    },
    {
      "anonymous": false,
      "inputs": [
        {
          "indexed": true,
          "internalType": "address",
          "name": "user",
          "type": "address"
        },
        {
          "indexed": false,
          "internalType": "uint256",
          "name": "amount",
          "type": "uint256"
        }
      ],
      "name": "Deposited",
      "type": "event"
    },
    {
      "anonymous": false,
      "inputs": [
        {
          "indexed": true,
          "internalType": "uint256",
          "name": "drawId",
          "type": "uint256"
        },
        {
          "indexed": false,
          "internalType": "string",
          "name": "drawNumber",
          "type": "string"
        },
        {
          "indexed": false,
          "internalType": "uint256",
          "name": "scheduledTime",
          "type": "uint256"
        }
      ],
      "name": "DrawCreated",
      "type": "event"
    },
    {
      "anonymous": false,
      "inputs": [
        {
          "indexed": true,
          "internalType": "uint256",
          "name": "drawId",
          "type": "uint256"
        },
        {
          "indexed": false,
          "internalType": "enum LaBolita.DrawStatus",
          "name": "status",
          "type": "uint8"
        }
      ],
      "name": "DrawStatusChanged",
      "type": "event"
    },
    {
      "anonymous": false,
      "inputs": [
        {
          "indexed": false,
          "internalType": "uint256",
          "name": "newJackpot",
          "type": "uint256"
        },
        {
          "indexed": false,
          "internalType": "uint256",
          "name": "addedAmount",
          "type": "uint256"
        }
      ],
      "name": "JackpotIncreased",
      "type": "event"
    },
    {
      "anonymous": false,
      "inputs": [
        {
          "indexed": true,
          "internalType": "uint256",
          "name": "lotteryId",
          "type": "uint256"
        },
        {
          "indexed": true,
          "internalType": "address",
          "name": "winner",
          "type": "address"
        },
        {
          "indexed": false,
          "internalType": "uint256",
          "name": "amount",
          "type": "uint256"
        }
      ],
      "name": "JackpotWon",
      "type": "event"
    },
    {
      "anonymous": false,
      "inputs": [
        {
          "indexed": true,
          "internalType": "uint256",
          "name": "lotteryId",
          "type": "uint256"
        },
        {
          "indexed": false,
          "internalType": "string",
          "name": "drawName",
          "type": "string"
        },
        {
          "indexed": false,
          "internalType": "uint256",
          "name": "scheduledTime",
          "type": "uint256"
        },
        {
          "indexed": false,
          "internalType": "uint256",
          "name": "jackpot",
          "type": "uint256"
        }
      ],
      "name": "LotteryDrawCreated",
      "type": "event"
    },
    {
      "anonymous": false,
      "inputs": [
        {
          "indexed": true,
          "internalType": "uint256",
          "name": "ticketId",
          "type": "uint256"
        },
        {
          "indexed": true,
          "internalType": "address",
          "name": "player",
          "type": "address"
        },
        {
          "indexed": false,
          "internalType": "uint8",
          "name": "category",
          "type": "uint8"
        },
        {
          "indexed": false,
          "internalType": "uint256",
          "name": "amount",
          "type": "uint256"
        }
      ],
      "name": "LotteryPrizeClaimed",
      "type": "event"
    },
    {
      "anonymous": false,
      "inputs": [
        {
          "indexed": true,
          "internalType": "uint256",
          "name": "lotteryId",
          "type": "uint256"
        },
        {
          "indexed": false,
          "internalType": "uint8[5]",
          "name": "winningNumbers",
          "type": "uint8[5]"
        },
        {
          "indexed": false,
          "internalType": "uint8",
          "name": "keyNumber",
          "type": "uint8"
        }
      ],
      "name": "LotteryResultsGenerated",
      "type": "event"
    },
    {
      "anonymous": false,
      "inputs": [
        {
          "indexed": true,
          "internalType": "uint256",
          "name": "ticketId",
          "type": "uint256"
        },
        {
          "indexed": true,
          "internalType": "address",
          "name": "player",
          "type": "address"
        },
        {
          "indexed": true,
          "internalType": "uint256",
          "name": "lotteryId",
          "type": "uint256"
        },
        {
          "indexed": false,
          "internalType": "uint8[5]",
          "name": "numbers",
          "type": "uint8[5]"
        },
        {
          "indexed": false,
          "internalType": "uint8",
          "name": "keyNumber",
          "type": "uint8"
        }
      ],
      "name": "LotteryTicketPurchased",
      "type": "event"
    },
    {
      "anonymous": false,
      "inputs": [
        {
          "indexed": true,
          "internalType": "address",
          "name": "previousOwner",
          "type": "address"
        },
        {
          "indexed": true,
          "internalType": "address",
          "name": "newOwner",
          "type": "address"
        }
      ],
      "name": "OwnershipTransferred",
      "type": "event"
    },
    {
      "anonymous": false,
      "inputs": [
        {
          "indexed": false,
          "internalType": "address",
          "name": "account",
          "type": "address"
        }
      ],
      "name": "Paused",
      "type": "event"
    },
    {
      "anonymous": false,
      "inputs": [
        {
          "indexed": true,
          "internalType": "uint256",
          "name": "drawId",
          "type": "uint256"
        },
        {
          "indexed": false,
          "internalType": "string",
          "name": "fijos",
          "type": "string"
        },
        {
          "indexed": false,
          "internalType": "string",
          "name": "centenas",
          "type": "string"
        },
        {
          "indexed": false,
          "internalType": "string",
          "name": "parles",
          "type": "string"
        },
        {
          "indexed": false,
          "internalType": "uint256",
          "name": "seed",
          "type": "uint256"
        }
      ],
      "name": "RandomResultsGenerated",
      "type": "event"
    },
    {
      "anonymous": false,
      "inputs": [
        {
          "indexed": true,
          "internalType": "address",
          "name": "user",
          "type": "address"
        },
        {
          "indexed": false,
          "internalType": "uint256",
          "name": "amount",
          "type": "uint256"
        }
      ],
      "name": "ReferralBonusClaimed",
      "type": "event"
    },
    {
      "anonymous": false,
      "inputs": [
        {
          "indexed": true,
          "internalType": "address",
          "name": "referrer",
          "type": "address"
        },
        {
          "indexed": true,
          "internalType": "address",
          "name": "referred",
          "type": "address"
        },
        {
          "indexed": false,
          "internalType": "uint256",
          "name": "amount",
          "type": "uint256"
        }
      ],
      "name": "ReferralBonusEarned",
      "type": "event"
    },
    {
      "anonymous": false,
      "inputs": [
        {
          "indexed": true,
          "internalType": "address",
          "name": "user",
          "type": "address"
        },
        {
          "indexed": true,
          "internalType": "address",
          "name": "referrer",
          "type": "address"
        }
      ],
      "name": "ReferralRegistered",
      "type": "event"
    },
    {
      "anonymous": false,
      "inputs": [
        {
          "indexed": true,
          "internalType": "uint256",
          "name": "drawId",
          "type": "uint256"
        },
        {
          "indexed": false,
          "internalType": "string",
          "name": "fijos",
          "type": "string"
        },
        {
          "indexed": false,
          "internalType": "string",
          "name": "centenas",
          "type": "string"
        },
        {
          "indexed": false,
          "internalType": "string",
          "name": "parles",
          "type": "string"
        }
      ],
      "name": "ResultsSubmitted",
      "type": "event"
    },
    {
      "anonymous": false,
      "inputs": [
        {
          "indexed": false,
          "internalType": "address",
          "name": "account",
          "type": "address"
        }
      ],
      "name": "Unpaused",
      "type": "event"
    },
    {
      "anonymous": false,
      "inputs": [
        {
          "indexed": true,
          "internalType": "address",
          "name": "user",
          "type": "address"
        },
        {
          "indexed": false,
          "internalType": "uint256",
          "name": "amount",
          "type": "uint256"
        }
      ],
      "name": "WelcomeBonusReceived",
      "type": "event"
    },
    {
      "anonymous": false,
      "inputs": [
        {
          "indexed": true,
          "internalType": "uint256",
          "name": "betId",
          "type": "uint256"
        },
        {
          "indexed": true,
          "internalType": "address",
          "name": "player",
          "type": "address"
        },
        {
          "indexed": false,
          "internalType": "uint256",
          "name": "amount",
          "type": "uint256"
        }
      ],
      "name": "WinningsClaimed",
      "type": "event"
    },
    {
      "anonymous": false,
      "inputs": [
        {
          "indexed": true,
          "internalType": "address",
          "name": "user",
          "type": "address"
        },
        {
          "indexed": false,
          "internalType": "uint256",
          "name": "amount",
          "type": "uint256"
        }
      ],
      "name": "Withdrawn",
      "type": "event"
    },
    {
      "inputs": [
        {
          "internalType": "uint256",
          "name": "_amount",
          "type": "uint256"
        }
      ],
      "name": "addToJackpot",
      "outputs": [],
      "stateMutability": "nonpayable",
      "type": "function"
    },
    {
      "inputs": [
        {
          "internalType": "address",
          "name": "",
          "type": "address"
        }
      ],
      "name": "admins",
      "outputs": [
        {
          "internalType": "bool",
          "name": "",
          "type": "bool"
        }
      ],
      "stateMutability": "view",
      "type": "function"
    },
    {
      "inputs": [],
      "name": "betCounter",
      "outputs": [
        {
          "internalType": "uint256",
          "name": "",
          "type": "uint256"
        }
      ],
      "stateMutability": "view",
      "type": "function"
    },
    {
      "inputs": [
        {
          "internalType": "uint256",
          "name": "",
          "type": "uint256"
        }
      ],
      "name": "bets",
      "outputs": [
        {
          "internalType": "address",
          "name": "player",
          "type": "address"
        },
        {
          "internalType": "uint256",
          "name": "drawId",
          "type": "uint256"
        },
        {
          "internalType": "enum LaBolita.BetType",
          "name": "betType",
          "type": "uint8"
        },
        {
          "internalType": "string",
          "name": "numbers",
          "type": "string"
        },
        {
          "internalType": "uint256",
          "name": "amount",
          "type": "uint256"
        },
        {
          "internalType": "bool",
          "name": "claimed",
          "type": "bool"
        },
        {
          "internalType": "uint256",
          "name": "payout",
          "type": "uint256"
        }
      ],
      "stateMutability": "view",
      "type": "function"
    },
    {
      "inputs": [],
      "name": "bettingCloseTime",
      "outputs": [
        {
          "internalType": "uint256",
          "name": "",
          "type": "uint256"
        }
      ],
      "stateMutability": "view",
      "type": "function"
    },
    {
      "inputs": [
        {
          "internalType": "uint256",
          "name": "_lotteryId",
          "type": "uint256"
        },
        {
          "internalType": "uint8[5]",
          "name": "_numbers",
          "type": "uint8[5]"
        },
        {
          "internalType": "uint8",
          "name": "_keyNumber",
          "type": "uint8"
        }
      ],
      "name": "buyLotteryTicket",
      "outputs": [],
      "stateMutability": "nonpayable",
      "type": "function"
    },
    {
      "inputs": [
        {
          "internalType": "uint256",
          "name": "_lotteryId",
          "type": "uint256"
        },
        {
          "internalType": "uint256",
          "name": "_quantity",
          "type": "uint256"
        }
      ],
      "name": "buyMultipleLotteryTickets",
      "outputs": [],
      "stateMutability": "nonpayable",
      "type": "function"
    },
    {
      "inputs": [
        {
          "internalType": "uint256",
          "name": "_drawId",
          "type": "uint256"
        }
      ],
      "name": "cancelDraw",
      "outputs": [],
      "stateMutability": "nonpayable",
      "type": "function"
    },
    {
      "inputs": [],
      "name": "centenaMultiplier",
      "outputs": [
        {
          "internalType": "uint256",
          "name": "",
          "type": "uint256"
        }
      ],
      "stateMutability": "view",
      "type": "function"
    },
    {
      "inputs": [
        {
          "internalType": "uint256",
          "name": "_ticketId",
          "type": "uint256"
        }
      ],
      "name": "checkLotteryPrize",
      "outputs": [
        {
          "internalType": "uint8",
          "name": "category",
          "type": "uint8"
        },
        {
          "internalType": "uint256",
          "name": "prize",
          "type": "uint256"
        }
      ],
      "stateMutability": "view",
      "type": "function"
    },
    {
      "inputs": [
        {
          "internalType": "uint256",
          "name": "_betId",
          "type": "uint256"
        }
      ],
      "name": "checkWinnings",
      "outputs": [
        {
          "internalType": "uint256",
          "name": "",
          "type": "uint256"
        }
      ],
      "stateMutability": "view",
      "type": "function"
    },
    {
      "inputs": [
        {
          "internalType": "uint256",
          "name": "_lotteryId",
          "type": "uint256"
        }
      ],
      "name": "claimAllLotteryPrizes",
      "outputs": [],
      "stateMutability": "nonpayable",
      "type": "function"
    },
    {
      "inputs": [
        {
          "internalType": "uint256",
          "name": "_drawId",
          "type": "uint256"
        }
      ],
      "name": "claimAllWinnings",
      "outputs": [],
      "stateMutability": "nonpayable",
      "type": "function"
    },
    {
      "inputs": [
        {
          "internalType": "uint256",
          "name": "_ticketId",
          "type": "uint256"
        }
      ],
      "name": "claimLotteryPrize",
      "outputs": [],
      "stateMutability": "nonpayable",
      "type": "function"
    },
    {
      "inputs": [],
      "name": "claimReferralEarnings",
      "outputs": [],
      "stateMutability": "nonpayable",
      "type": "function"
    },
    {
      "inputs": [
        {
          "internalType": "uint256",
          "name": "_betId",
          "type": "uint256"
        }
      ],
      "name": "claimWinnings",
      "outputs": [],
      "stateMutability": "nonpayable",
      "type": "function"
    },
    {
      "inputs": [
        {
          "internalType": "uint256",
          "name": "_drawId",
          "type": "uint256"
        }
      ],
      "name": "closeDraw",
      "outputs": [],
      "stateMutability": "nonpayable",
      "type": "function"
    },
    {
      "inputs": [],
      "name": "closeExpiredDraws",
      "outputs": [],
      "stateMutability": "nonpayable",
      "type": "function"
    },
    {
      "inputs": [
        {
          "internalType": "uint256",
          "name": "_lotteryId",
          "type": "uint256"
        }
      ],
      "name": "closeLotteryDraw",
      "outputs": [],
      "stateMutability": "nonpayable",
      "type": "function"
    },
    {
      "inputs": [],
      "name": "createDailyDraws",
      "outputs": [],
      "stateMutability": "nonpayable",
      "type": "function"
    },
    {
      "inputs": [
        {
          "internalType": "string",
          "name": "_drawNumber",
          "type": "string"
        },
        {
          "internalType": "uint256",
          "name": "_scheduledTime",
          "type": "uint256"
        }
      ],
      "name": "createDraw",
      "outputs": [
        {
          "internalType": "uint256",
          "name": "",
          "type": "uint256"
        }
      ],
      "stateMutability": "nonpayable",
      "type": "function"
    },
    {
      "inputs": [
        {
          "internalType": "string",
          "name": "_drawName",
          "type": "string"
        },
        {
          "internalType": "uint256",
          "name": "_scheduledTime",
          "type": "uint256"
        }
      ],
      "name": "createLotteryDraw",
      "outputs": [
        {
          "internalType": "uint256",
          "name": "",
          "type": "uint256"
        }
      ],
      "stateMutability": "nonpayable",
      "type": "function"
    },
    {
      "inputs": [],
      "name": "createWeeklyLotteryDraws",
      "outputs": [],
      "stateMutability": "nonpayable",
      "type": "function"
    },
    {
      "inputs": [],
      "name": "currentJackpot",
      "outputs": [
        {
          "internalType": "uint256",
          "name": "",
          "type": "uint256"
        }
      ],
      "stateMutability": "view",
      "type": "function"
    },
    {
      "inputs": [
        {
          "internalType": "uint256",
          "name": "_amount",
          "type": "uint256"
        }
      ],
      "name": "deposit",
      "outputs": [],
      "stateMutability": "nonpayable",
      "type": "function"
    },
    {
      "inputs": [
        {
          "internalType": "uint256",
          "name": "_amount",
          "type": "uint256"
        }
      ],
      "name": "depositBonusFunds",
      "outputs": [],
      "stateMutability": "nonpayable",
      "type": "function"
    },
    {
      "inputs": [
        {
          "internalType": "uint256",
          "name": "_amount",
          "type": "uint256"
        },
        {
          "internalType": "address",
          "name": "_referrer",
          "type": "address"
        }
      ],
      "name": "depositWithReferral",
      "outputs": [],
      "stateMutability": "nonpayable",
      "type": "function"
    },
    {
      "inputs": [
        {
          "internalType": "uint256",
          "name": "",
          "type": "uint256"
        },
        {
          "internalType": "uint256",
          "name": "",
          "type": "uint256"
        }
      ],
      "name": "drawBets",
      "outputs": [
        {
          "internalType": "uint256",
          "name": "",
          "type": "uint256"
        }
      ],
      "stateMutability": "view",
      "type": "function"
    },
    {
      "inputs": [],
      "name": "drawCounter",
      "outputs": [
        {
          "internalType": "uint256",
          "name": "",
          "type": "uint256"
        }
      ],
      "stateMutability": "view",
      "type": "function"
    },
    {
      "inputs": [
        {
          "internalType": "uint256",
          "name": "",
          "type": "uint256"
        }
      ],
      "name": "drawNames",
      "outputs": [
        {
          "internalType": "string",
          "name": "",
          "type": "string"
        }
      ],
      "stateMutability": "view",
      "type": "function"
    },
    {
      "inputs": [
        {
          "internalType": "uint256",
          "name": "",
          "type": "uint256"
        }
      ],
      "name": "drawTimes",
      "outputs": [
        {
          "internalType": "uint256",
          "name": "",
          "type": "uint256"
        }
      ],
      "stateMutability": "view",
      "type": "function"
    },
    {
      "inputs": [
        {
          "internalType": "uint256",
          "name": "",
          "type": "uint256"
        }
      ],
      "name": "draws",
      "outputs": [
        {
          "internalType": "uint256",
          "name": "id",
          "type": "uint256"
        },
        {
          "internalType": "string",
          "name": "drawNumber",
          "type": "string"
        },
        {
          "internalType": "uint256",
          "name": "scheduledTime",
          "type": "uint256"
        },
        {
          "internalType": "enum LaBolita.DrawStatus",
          "name": "status",
          "type": "uint8"
        },
        {
          "internalType": "string",
          "name": "winningFijos",
          "type": "string"
        },
        {
          "internalType": "string",
          "name": "winningCentenas",
          "type": "string"
        },
        {
          "internalType": "string",
          "name": "winningParles",
          "type": "string"
        },
        {
          "internalType": "uint256",
          "name": "totalBets",
          "type": "uint256"
        },
        {
          "internalType": "uint256",
          "name": "totalAmount",
          "type": "uint256"
        },
        {
          "internalType": "uint256",
          "name": "totalPaidOut",
          "type": "uint256"
        }
      ],
      "stateMutability": "view",
      "type": "function"
    },
    {
      "inputs": [
        {
          "internalType": "address",
          "name": "_token",
          "type": "address"
        },
        {
          "internalType": "uint256",
          "name": "_amount",
          "type": "uint256"
        }
      ],
      "name": "emergencyWithdraw",
      "outputs": [],
      "stateMutability": "nonpayable",
      "type": "function"
    },
    {
      "inputs": [],
      "name": "fijoMultiplier",
      "outputs": [
        {
          "internalType": "uint256",
          "name": "",
          "type": "uint256"
        }
      ],
      "stateMutability": "view",
      "type": "function"
    },
    {
      "inputs": [
        {
          "internalType": "uint256",
          "name": "_lotteryId",
          "type": "uint256"
        }
      ],
      "name": "generateLotteryResults",
      "outputs": [],
      "stateMutability": "nonpayable",
      "type": "function"
    },
    {
      "inputs": [
        {
          "internalType": "uint256",
          "name": "_drawId",
          "type": "uint256"
        }
      ],
      "name": "generateRandomResults",
      "outputs": [],
      "stateMutability": "nonpayable",
      "type": "function"
    },
    {
      "inputs": [],
      "name": "getAutomationConfig",
      "outputs": [
        {
          "internalType": "uint256",
          "name": "closeTime",
          "type": "uint256"
        },
        {
          "internalType": "uint256[3]",
          "name": "times",
          "type": "uint256[3]"
        },
        {
          "internalType": "string[3]",
          "name": "names",
          "type": "string[3]"
        },
        {
          "internalType": "uint256",
          "name": "lastDate",
          "type": "uint256"
        }
      ],
      "stateMutability": "view",
      "type": "function"
    },
    {
      "inputs": [
        {
          "internalType": "address",
          "name": "_user",
          "type": "address"
        }
      ],
      "name": "getBalance",
      "outputs": [
        {
          "internalType": "uint256",
          "name": "",
          "type": "uint256"
        }
      ],
      "stateMutability": "view",
      "type": "function"
    },
    {
      "inputs": [
        {
          "internalType": "uint256",
          "name": "_betId",
          "type": "uint256"
        }
      ],
      "name": "getBet",
      "outputs": [
        {
          "components": [
            {
              "internalType": "address",
              "name": "player",
              "type": "address"
            },
            {
              "internalType": "uint256",
              "name": "drawId",
              "type": "uint256"
            },
            {
              "internalType": "enum LaBolita.BetType",
              "name": "betType",
              "type": "uint8"
            },
            {
              "internalType": "string",
              "name": "numbers",
              "type": "string"
            },
            {
              "internalType": "uint256",
              "name": "amount",
              "type": "uint256"
            },
            {
              "internalType": "bool",
              "name": "claimed",
              "type": "bool"
            },
            {
              "internalType": "uint256",
              "name": "payout",
              "type": "uint256"
            }
          ],
          "internalType": "struct LaBolita.Bet",
          "name": "",
          "type": "tuple"
        }
      ],
      "stateMutability": "view",
      "type": "function"
    },
    {
      "inputs": [
        {
          "internalType": "uint256",
          "name": "_drawId",
          "type": "uint256"
        }
      ],
      "name": "getDraw",
      "outputs": [
        {
          "components": [
            {
              "internalType": "uint256",
              "name": "id",
              "type": "uint256"
            },
            {
              "internalType": "string",
              "name": "drawNumber",
              "type": "string"
            },
            {
              "internalType": "uint256",
              "name": "scheduledTime",
              "type": "uint256"
            },
            {
              "internalType": "enum LaBolita.DrawStatus",
              "name": "status",
              "type": "uint8"
            },
            {
              "internalType": "string",
              "name": "winningFijos",
              "type": "string"
            },
            {
              "internalType": "string",
              "name": "winningCentenas",
              "type": "string"
            },
            {
              "internalType": "string",
              "name": "winningParles",
              "type": "string"
            },
            {
              "internalType": "uint256",
              "name": "totalBets",
              "type": "uint256"
            },
            {
              "internalType": "uint256",
              "name": "totalAmount",
              "type": "uint256"
            },
            {
              "internalType": "uint256",
              "name": "totalPaidOut",
              "type": "uint256"
            }
          ],
          "internalType": "struct LaBolita.Draw",
          "name": "",
          "type": "tuple"
        }
      ],
      "stateMutability": "view",
      "type": "function"
    },
    {
      "inputs": [
        {
          "internalType": "uint256",
          "name": "_drawId",
          "type": "uint256"
        }
      ],
      "name": "getDrawBets",
      "outputs": [
        {
          "internalType": "uint256[]",
          "name": "",
          "type": "uint256[]"
        }
      ],
      "stateMutability": "view",
      "type": "function"
    },
    {
      "inputs": [],
      "name": "getJackpot",
      "outputs": [
        {
          "internalType": "uint256",
          "name": "",
          "type": "uint256"
        }
      ],
      "stateMutability": "view",
      "type": "function"
    },
    {
      "inputs": [],
      "name": "getJackpotInfo",
      "outputs": [
        {
          "internalType": "uint256",
          "name": "jackpot",
          "type": "uint256"
        },
        {
          "internalType": "uint256",
          "name": "nextDrawId",
          "type": "uint256"
        },
        {
          "internalType": "string",
          "name": "nextDrawName",
          "type": "string"
        },
        {
          "internalType": "uint256",
          "name": "nextDrawTime",
          "type": "uint256"
        }
      ],
      "stateMutability": "view",
      "type": "function"
    },
    {
      "inputs": [],
      "name": "getLotteryConfig",
      "outputs": [
        {
          "internalType": "uint256",
          "name": "ticketPrice",
          "type": "uint256"
        },
        {
          "internalType": "uint256",
          "name": "jackpotPercent",
          "type": "uint256"
        },
        {
          "internalType": "uint256",
          "name": "minJackpotAmount",
          "type": "uint256"
        },
        {
          "internalType": "uint256",
          "name": "currentJackpotAmount",
          "type": "uint256"
        },
        {
          "internalType": "uint256",
          "name": "totalLotteries",
          "type": "uint256"
        },
        {
          "internalType": "uint256",
          "name": "totalTickets",
          "type": "uint256"
        }
      ],
      "stateMutability": "view",
      "type": "function"
    },
    {
      "inputs": [
        {
          "internalType": "uint256",
          "name": "_lotteryId",
          "type": "uint256"
        }
      ],
      "name": "getLotteryDraw",
      "outputs": [
        {
          "components": [
            {
              "internalType": "uint256",
              "name": "id",
              "type": "uint256"
            },
            {
              "internalType": "string",
              "name": "drawName",
              "type": "string"
            },
            {
              "internalType": "uint256",
              "name": "scheduledTime",
              "type": "uint256"
            },
            {
              "internalType": "enum LaBolita.LotteryStatus",
              "name": "status",
              "type": "uint8"
            },
            {
              "internalType": "uint8[5]",
              "name": "winningNumbers",
              "type": "uint8[5]"
            },
            {
              "internalType": "uint8",
              "name": "keyNumber",
              "type": "uint8"
            },
            {
              "internalType": "uint256",
              "name": "jackpot",
              "type": "uint256"
            },
            {
              "internalType": "uint256",
              "name": "totalTickets",
              "type": "uint256"
            },
            {
              "internalType": "uint256",
              "name": "totalCollected",
              "type": "uint256"
            },
            {
              "internalType": "uint256",
              "name": "totalPaidOut",
              "type": "uint256"
            },
            {
              "internalType": "bool",
              "name": "jackpotWon",
              "type": "bool"
            }
          ],
          "internalType": "struct LaBolita.LotteryDraw",
          "name": "",
          "type": "tuple"
        }
      ],
      "stateMutability": "view",
      "type": "function"
    },
    {
      "inputs": [
        {
          "internalType": "uint256",
          "name": "_lotteryId",
          "type": "uint256"
        }
      ],
      "name": "getLotteryDrawTickets",
      "outputs": [
        {
          "internalType": "uint256[]",
          "name": "",
          "type": "uint256[]"
        }
      ],
      "stateMutability": "view",
      "type": "function"
    },
    {
      "inputs": [],
      "name": "getLotteryPrizes",
      "outputs": [
        {
          "internalType": "uint256",
          "name": "cat2",
          "type": "uint256"
        },
        {
          "internalType": "uint256",
          "name": "cat3",
          "type": "uint256"
        },
        {
          "internalType": "uint256",
          "name": "cat4",
          "type": "uint256"
        },
        {
          "internalType": "uint256",
          "name": "cat5",
          "type": "uint256"
        },
        {
          "internalType": "uint256",
          "name": "cat6",
          "type": "uint256"
        }
      ],
      "stateMutability": "view",
      "type": "function"
    },
    {
      "inputs": [
        {
          "internalType": "uint256",
          "name": "_ticketId",
          "type": "uint256"
        }
      ],
      "name": "getLotteryTicket",
      "outputs": [
        {
          "components": [
            {
              "internalType": "address",
              "name": "player",
              "type": "address"
            },
            {
              "internalType": "uint256",
              "name": "lotteryId",
              "type": "uint256"
            },
            {
              "internalType": "uint8[5]",
              "name": "numbers",
              "type": "uint8[5]"
            },
            {
              "internalType": "uint8",
              "name": "keyNumber",
              "type": "uint8"
            },
            {
              "internalType": "uint256",
              "name": "purchaseTime",
              "type": "uint256"
            },
            {
              "internalType": "bool",
              "name": "claimed",
              "type": "bool"
            },
            {
              "internalType": "uint256",
              "name": "prize",
              "type": "uint256"
            },
            {
              "internalType": "uint8",
              "name": "category",
              "type": "uint8"
            }
          ],
          "internalType": "struct LaBolita.LotteryTicket",
          "name": "",
          "type": "tuple"
        }
      ],
      "stateMutability": "view",
      "type": "function"
    },
    {
      "inputs": [],
      "name": "getMyReferralAddress",
      "outputs": [
        {
          "internalType": "address",
          "name": "",
          "type": "address"
        }
      ],
      "stateMutability": "view",
      "type": "function"
    },
    {
      "inputs": [],
      "name": "getOpenDraws",
      "outputs": [
        {
          "internalType": "uint256[]",
          "name": "",
          "type": "uint256[]"
        }
      ],
      "stateMutability": "view",
      "type": "function"
    },
    {
      "inputs": [],
      "name": "getOpenLotteryDraws",
      "outputs": [
        {
          "internalType": "uint256[]",
          "name": "",
          "type": "uint256[]"
        }
      ],
      "stateMutability": "view",
      "type": "function"
    },
    {
      "inputs": [],
      "name": "getPendingDraws",
      "outputs": [
        {
          "internalType": "uint256[]",
          "name": "",
          "type": "uint256[]"
        }
      ],
      "stateMutability": "view",
      "type": "function"
    },
    {
      "inputs": [],
      "name": "getReferralConfig",
      "outputs": [
        {
          "internalType": "uint256",
          "name": "bonusPercent",
          "type": "uint256"
        },
        {
          "internalType": "uint256",
          "name": "welcomeBonus",
          "type": "uint256"
        },
        {
          "internalType": "bool",
          "name": "welcomeEnabled",
          "type": "bool"
        },
        {
          "internalType": "bool",
          "name": "systemEnabled",
          "type": "bool"
        }
      ],
      "stateMutability": "view",
      "type": "function"
    },
    {
      "inputs": [
        {
          "internalType": "address",
          "name": "_user",
          "type": "address"
        }
      ],
      "name": "getReferralInfo",
      "outputs": [
        {
          "internalType": "address",
          "name": "referrer",
          "type": "address"
        },
        {
          "internalType": "uint256",
          "name": "totalReferred",
          "type": "uint256"
        },
        {
          "internalType": "uint256",
          "name": "totalEarnings",
          "type": "uint256"
        },
        {
          "internalType": "uint256",
          "name": "pendingEarnings",
          "type": "uint256"
        },
        {
          "internalType": "bool",
          "name": "hasReceivedBonus",
          "type": "bool"
        },
        {
          "internalType": "uint256",
          "name": "joinedAt",
          "type": "uint256"
        }
      ],
      "stateMutability": "view",
      "type": "function"
    },
    {
      "inputs": [
        {
          "internalType": "address",
          "name": "_user",
          "type": "address"
        }
      ],
      "name": "getReferralStats",
      "outputs": [
        {
          "internalType": "uint256",
          "name": "totalReferred",
          "type": "uint256"
        },
        {
          "internalType": "uint256",
          "name": "totalEarnings",
          "type": "uint256"
        },
        {
          "internalType": "uint256",
          "name": "pendingEarnings",
          "type": "uint256"
        },
        {
          "internalType": "uint256",
          "name": "referralBonusRate",
          "type": "uint256"
        }
      ],
      "stateMutability": "view",
      "type": "function"
    },
    {
      "inputs": [
        {
          "internalType": "address",
          "name": "_user",
          "type": "address"
        }
      ],
      "name": "getReferredUsers",
      "outputs": [
        {
          "internalType": "address[]",
          "name": "",
          "type": "address[]"
        }
      ],
      "stateMutability": "view",
      "type": "function"
    },
    {
      "inputs": [
        {
          "internalType": "address",
          "name": "_user",
          "type": "address"
        }
      ],
      "name": "getUserBets",
      "outputs": [
        {
          "internalType": "uint256[]",
          "name": "",
          "type": "uint256[]"
        }
      ],
      "stateMutability": "view",
      "type": "function"
    },
    {
      "inputs": [
        {
          "internalType": "address",
          "name": "_user",
          "type": "address"
        }
      ],
      "name": "getUserLotteryTickets",
      "outputs": [
        {
          "internalType": "uint256[]",
          "name": "",
          "type": "uint256[]"
        }
      ],
      "stateMutability": "view",
      "type": "function"
    },
    {
      "inputs": [
        {
          "internalType": "address",
          "name": "_user",
          "type": "address"
        }
      ],
      "name": "hasReferrer",
      "outputs": [
        {
          "internalType": "bool",
          "name": "",
          "type": "bool"
        }
      ],
      "stateMutability": "view",
      "type": "function"
    },
    {
      "inputs": [],
      "name": "jackpotPercentage",
      "outputs": [
        {
          "internalType": "uint256",
          "name": "",
          "type": "uint256"
        }
      ],
      "stateMutability": "view",
      "type": "function"
    },
    {
      "inputs": [],
      "name": "lastDrawDate",
      "outputs": [
        {
          "internalType": "uint256",
          "name": "",
          "type": "uint256"
        }
      ],
      "stateMutability": "view",
      "type": "function"
    },
    {
      "inputs": [],
      "name": "lotteryCounter",
      "outputs": [
        {
          "internalType": "uint256",
          "name": "",
          "type": "uint256"
        }
      ],
      "stateMutability": "view",
      "type": "function"
    },
    {
      "inputs": [
        {
          "internalType": "uint256",
          "name": "",
          "type": "uint256"
        }
      ],
      "name": "lotteryDays",
      "outputs": [
        {
          "internalType": "uint8",
          "name": "",
          "type": "uint8"
        }
      ],
      "stateMutability": "view",
      "type": "function"
    },
    {
      "inputs": [
        {
          "internalType": "uint256",
          "name": "",
          "type": "uint256"
        },
        {
          "internalType": "uint256",
          "name": "",
          "type": "uint256"
        }
      ],
      "name": "lotteryDrawTickets",
      "outputs": [
        {
          "internalType": "uint256",
          "name": "",
          "type": "uint256"
        }
      ],
      "stateMutability": "view",
      "type": "function"
    },
    {
      "inputs": [],
      "name": "lotteryDrawTime",
      "outputs": [
        {
          "internalType": "uint256",
          "name": "",
          "type": "uint256"
        }
      ],
      "stateMutability": "view",
      "type": "function"
    },
    {
      "inputs": [
        {
          "internalType": "uint256",
          "name": "",
          "type": "uint256"
        }
      ],
      "name": "lotteryDraws",
      "outputs": [
        {
          "internalType": "uint256",
          "name": "id",
          "type": "uint256"
        },
        {
          "internalType": "string",
          "name": "drawName",
          "type": "string"
        },
        {
          "internalType": "uint256",
          "name": "scheduledTime",
          "type": "uint256"
        },
        {
          "internalType": "enum LaBolita.LotteryStatus",
          "name": "status",
          "type": "uint8"
        },
        {
          "internalType": "uint8",
          "name": "keyNumber",
          "type": "uint8"
        },
        {
          "internalType": "uint256",
          "name": "jackpot",
          "type": "uint256"
        },
        {
          "internalType": "uint256",
          "name": "totalTickets",
          "type": "uint256"
        },
        {
          "internalType": "uint256",
          "name": "totalCollected",
          "type": "uint256"
        },
        {
          "internalType": "uint256",
          "name": "totalPaidOut",
          "type": "uint256"
        },
        {
          "internalType": "bool",
          "name": "jackpotWon",
          "type": "bool"
        }
      ],
      "stateMutability": "view",
      "type": "function"
    },
    {
      "inputs": [],
      "name": "lotteryTicketPrice",
      "outputs": [
        {
          "internalType": "uint256",
          "name": "",
          "type": "uint256"
        }
      ],
      "stateMutability": "view",
      "type": "function"
    },
    {
      "inputs": [
        {
          "internalType": "uint256",
          "name": "",
          "type": "uint256"
        }
      ],
      "name": "lotteryTickets",
      "outputs": [
        {
          "internalType": "address",
          "name": "player",
          "type": "address"
        },
        {
          "internalType": "uint256",
          "name": "lotteryId",
          "type": "uint256"
        },
        {
          "internalType": "uint8",
          "name": "keyNumber",
          "type": "uint8"
        },
        {
          "internalType": "uint256",
          "name": "purchaseTime",
          "type": "uint256"
        },
        {
          "internalType": "bool",
          "name": "claimed",
          "type": "bool"
        },
        {
          "internalType": "uint256",
          "name": "prize",
          "type": "uint256"
        },
        {
          "internalType": "uint8",
          "name": "category",
          "type": "uint8"
        }
      ],
      "stateMutability": "view",
      "type": "function"
    },
    {
      "inputs": [],
      "name": "maxBetAmount",
      "outputs": [
        {
          "internalType": "uint256",
          "name": "",
          "type": "uint256"
        }
      ],
      "stateMutability": "view",
      "type": "function"
    },
    {
      "inputs": [],
      "name": "minBetAmount",
      "outputs": [
        {
          "internalType": "uint256",
          "name": "",
          "type": "uint256"
        }
      ],
      "stateMutability": "view",
      "type": "function"
    },
    {
      "inputs": [],
      "name": "minJackpot",
      "outputs": [
        {
          "internalType": "uint256",
          "name": "",
          "type": "uint256"
        }
      ],
      "stateMutability": "view",
      "type": "function"
    },
    {
      "inputs": [
        {
          "internalType": "uint256",
          "name": "_drawId",
          "type": "uint256"
        }
      ],
      "name": "openDraw",
      "outputs": [],
      "stateMutability": "nonpayable",
      "type": "function"
    },
    {
      "inputs": [],
      "name": "owner",
      "outputs": [
        {
          "internalType": "address",
          "name": "",
          "type": "address"
        }
      ],
      "stateMutability": "view",
      "type": "function"
    },
    {
      "inputs": [],
      "name": "parleMultiplier",
      "outputs": [
        {
          "internalType": "uint256",
          "name": "",
          "type": "uint256"
        }
      ],
      "stateMutability": "view",
      "type": "function"
    },
    {
      "inputs": [],
      "name": "pause",
      "outputs": [],
      "stateMutability": "nonpayable",
      "type": "function"
    },
    {
      "inputs": [],
      "name": "paused",
      "outputs": [
        {
          "internalType": "bool",
          "name": "",
          "type": "bool"
        }
      ],
      "stateMutability": "view",
      "type": "function"
    },
    {
      "inputs": [],
      "name": "paymentToken",
      "outputs": [
        {
          "internalType": "contract IERC20",
          "name": "",
          "type": "address"
        }
      ],
      "stateMutability": "view",
      "type": "function"
    },
    {
      "inputs": [
        {
          "internalType": "uint256",
          "name": "_drawId",
          "type": "uint256"
        },
        {
          "internalType": "enum LaBolita.BetType",
          "name": "_betType",
          "type": "uint8"
        },
        {
          "internalType": "string",
          "name": "_numbers",
          "type": "string"
        },
        {
          "internalType": "uint256",
          "name": "_amount",
          "type": "uint256"
        }
      ],
      "name": "placeBet",
      "outputs": [],
      "stateMutability": "nonpayable",
      "type": "function"
    },
    {
      "inputs": [],
      "name": "prize2Amount",
      "outputs": [
        {
          "internalType": "uint256",
          "name": "",
          "type": "uint256"
        }
      ],
      "stateMutability": "view",
      "type": "function"
    },
    {
      "inputs": [],
      "name": "prize3Amount",
      "outputs": [
        {
          "internalType": "uint256",
          "name": "",
          "type": "uint256"
        }
      ],
      "stateMutability": "view",
      "type": "function"
    },
    {
      "inputs": [],
      "name": "prize4Amount",
      "outputs": [
        {
          "internalType": "uint256",
          "name": "",
          "type": "uint256"
        }
      ],
      "stateMutability": "view",
      "type": "function"
    },
    {
      "inputs": [],
      "name": "prize5Amount",
      "outputs": [
        {
          "internalType": "uint256",
          "name": "",
          "type": "uint256"
        }
      ],
      "stateMutability": "view",
      "type": "function"
    },
    {
      "inputs": [],
      "name": "prize6Amount",
      "outputs": [
        {
          "internalType": "uint256",
          "name": "",
          "type": "uint256"
        }
      ],
      "stateMutability": "view",
      "type": "function"
    },
    {
      "inputs": [],
      "name": "processDraws",
      "outputs": [],
      "stateMutability": "nonpayable",
      "type": "function"
    },
    {
      "inputs": [],
      "name": "processLotteryDraws",
      "outputs": [],
      "stateMutability": "nonpayable",
      "type": "function"
    },
    {
      "inputs": [],
      "name": "randomNonce",
      "outputs": [
        {
          "internalType": "uint256",
          "name": "",
          "type": "uint256"
        }
      ],
      "stateMutability": "view",
      "type": "function"
    },
    {
      "inputs": [],
      "name": "referralBonusPercent",
      "outputs": [
        {
          "internalType": "uint256",
          "name": "",
          "type": "uint256"
        }
      ],
      "stateMutability": "view",
      "type": "function"
    },
    {
      "inputs": [
        {
          "internalType": "address",
          "name": "",
          "type": "address"
        }
      ],
      "name": "referralInfo",
      "outputs": [
        {
          "internalType": "address",
          "name": "referrer",
          "type": "address"
        },
        {
          "internalType": "uint256",
          "name": "totalReferred",
          "type": "uint256"
        },
        {
          "internalType": "uint256",
          "name": "totalEarnings",
          "type": "uint256"
        },
        {
          "internalType": "uint256",
          "name": "pendingEarnings",
          "type": "uint256"
        },
        {
          "internalType": "bool",
          "name": "hasReceivedBonus",
          "type": "bool"
        },
        {
          "internalType": "uint256",
          "name": "joinedAt",
          "type": "uint256"
        }
      ],
      "stateMutability": "view",
      "type": "function"
    },
    {
      "inputs": [],
      "name": "referralSystemEnabled",
      "outputs": [
        {
          "internalType": "bool",
          "name": "",
          "type": "bool"
        }
      ],
      "stateMutability": "view",
      "type": "function"
    },
    {
      "inputs": [
        {
          "internalType": "address",
          "name": "",
          "type": "address"
        },
        {
          "internalType": "uint256",
          "name": "",
          "type": "uint256"
        }
      ],
      "name": "referredUsers",
      "outputs": [
        {
          "internalType": "address",
          "name": "",
          "type": "address"
        }
      ],
      "stateMutability": "view",
      "type": "function"
    },
    {
      "inputs": [
        {
          "internalType": "address",
          "name": "_referrer",
          "type": "address"
        }
      ],
      "name": "registerReferral",
      "outputs": [],
      "stateMutability": "nonpayable",
      "type": "function"
    },
    {
      "inputs": [],
      "name": "renounceOwnership",
      "outputs": [],
      "stateMutability": "nonpayable",
      "type": "function"
    },
    {
      "inputs": [
        {
          "internalType": "address",
          "name": "_admin",
          "type": "address"
        },
        {
          "internalType": "bool",
          "name": "_status",
          "type": "bool"
        }
      ],
      "name": "setAdmin",
      "outputs": [],
      "stateMutability": "nonpayable",
      "type": "function"
    },
    {
      "inputs": [
        {
          "internalType": "uint256",
          "name": "_seconds",
          "type": "uint256"
        }
      ],
      "name": "setBettingCloseTime",
      "outputs": [],
      "stateMutability": "nonpayable",
      "type": "function"
    },
    {
      "inputs": [
        {
          "internalType": "uint256",
          "name": "_morning",
          "type": "uint256"
        },
        {
          "internalType": "uint256",
          "name": "_afternoon",
          "type": "uint256"
        },
        {
          "internalType": "uint256",
          "name": "_night",
          "type": "uint256"
        }
      ],
      "name": "setDrawTimes",
      "outputs": [],
      "stateMutability": "nonpayable",
      "type": "function"
    },
    {
      "inputs": [
        {
          "internalType": "uint256",
          "name": "_percentage",
          "type": "uint256"
        }
      ],
      "name": "setJackpotPercentage",
      "outputs": [],
      "stateMutability": "nonpayable",
      "type": "function"
    },
    {
      "inputs": [
        {
          "internalType": "uint256",
          "name": "_prize2",
          "type": "uint256"
        },
        {
          "internalType": "uint256",
          "name": "_prize3",
          "type": "uint256"
        },
        {
          "internalType": "uint256",
          "name": "_prize4",
          "type": "uint256"
        },
        {
          "internalType": "uint256",
          "name": "_prize5",
          "type": "uint256"
        },
        {
          "internalType": "uint256",
          "name": "_prize6",
          "type": "uint256"
        }
      ],
      "name": "setLotteryPrizes",
      "outputs": [],
      "stateMutability": "nonpayable",
      "type": "function"
    },
    {
      "inputs": [
        {
          "internalType": "uint256",
          "name": "_price",
          "type": "uint256"
        }
      ],
      "name": "setLotteryTicketPrice",
      "outputs": [],
      "stateMutability": "nonpayable",
      "type": "function"
    },
    {
      "inputs": [
        {
          "internalType": "uint256",
          "name": "_amount",
          "type": "uint256"
        }
      ],
      "name": "setMaxBetAmount",
      "outputs": [],
      "stateMutability": "nonpayable",
      "type": "function"
    },
    {
      "inputs": [
        {
          "internalType": "uint256",
          "name": "_amount",
          "type": "uint256"
        }
      ],
      "name": "setMinBetAmount",
      "outputs": [],
      "stateMutability": "nonpayable",
      "type": "function"
    },
    {
      "inputs": [
        {
          "internalType": "uint256",
          "name": "_amount",
          "type": "uint256"
        }
      ],
      "name": "setMinJackpot",
      "outputs": [],
      "stateMutability": "nonpayable",
      "type": "function"
    },
    {
      "inputs": [
        {
          "internalType": "uint256",
          "name": "_fijo",
          "type": "uint256"
        },
        {
          "internalType": "uint256",
          "name": "_centena",
          "type": "uint256"
        },
        {
          "internalType": "uint256",
          "name": "_parle",
          "type": "uint256"
        }
      ],
      "name": "setMultipliers",
      "outputs": [],
      "stateMutability": "nonpayable",
      "type": "function"
    },
    {
      "inputs": [
        {
          "internalType": "address",
          "name": "_token",
          "type": "address"
        }
      ],
      "name": "setPaymentToken",
      "outputs": [],
      "stateMutability": "nonpayable",
      "type": "function"
    },
    {
      "inputs": [
        {
          "internalType": "uint256",
          "name": "_percent",
          "type": "uint256"
        }
      ],
      "name": "setReferralBonusPercent",
      "outputs": [],
      "stateMutability": "nonpayable",
      "type": "function"
    },
    {
      "inputs": [
        {
          "internalType": "bool",
          "name": "_enabled",
          "type": "bool"
        }
      ],
      "name": "setReferralSystemEnabled",
      "outputs": [],
      "stateMutability": "nonpayable",
      "type": "function"
    },
    {
      "inputs": [
        {
          "internalType": "uint256",
          "name": "_amount",
          "type": "uint256"
        }
      ],
      "name": "setWelcomeBonusAmount",
      "outputs": [],
      "stateMutability": "nonpayable",
      "type": "function"
    },
    {
      "inputs": [
        {
          "internalType": "bool",
          "name": "_enabled",
          "type": "bool"
        }
      ],
      "name": "setWelcomeBonusEnabled",
      "outputs": [],
      "stateMutability": "nonpayable",
      "type": "function"
    },
    {
      "inputs": [
        {
          "internalType": "uint256",
          "name": "_drawId",
          "type": "uint256"
        },
        {
          "internalType": "string",
          "name": "_fijos",
          "type": "string"
        },
        {
          "internalType": "string",
          "name": "_centenas",
          "type": "string"
        },
        {
          "internalType": "string",
          "name": "_parles",
          "type": "string"
        }
      ],
      "name": "submitResults",
      "outputs": [],
      "stateMutability": "nonpayable",
      "type": "function"
    },
    {
      "inputs": [],
      "name": "ticketCounter",
      "outputs": [
        {
          "internalType": "uint256",
          "name": "",
          "type": "uint256"
        }
      ],
      "stateMutability": "view",
      "type": "function"
    },
    {
      "inputs": [
        {
          "internalType": "address",
          "name": "newOwner",
          "type": "address"
        }
      ],
      "name": "transferOwnership",
      "outputs": [],
      "stateMutability": "nonpayable",
      "type": "function"
    },
    {
      "inputs": [],
      "name": "unpause",
      "outputs": [],
      "stateMutability": "nonpayable",
      "type": "function"
    },
    {
      "inputs": [
        {
          "internalType": "address",
          "name": "",
          "type": "address"
        }
      ],
      "name": "userBalances",
      "outputs": [
        {
          "internalType": "uint256",
          "name": "",
          "type": "uint256"
        }
      ],
      "stateMutability": "view",
      "type": "function"
    },
    {
      "inputs": [
        {
          "internalType": "address",
          "name": "",
          "type": "address"
        },
        {
          "internalType": "uint256",
          "name": "",
          "type": "uint256"
        }
      ],
      "name": "userBets",
      "outputs": [
        {
          "internalType": "uint256",
          "name": "",
          "type": "uint256"
        }
      ],
      "stateMutability": "view",
      "type": "function"
    },
    {
      "inputs": [
        {
          "internalType": "address",
          "name": "",
          "type": "address"
        },
        {
          "internalType": "uint256",
          "name": "",
          "type": "uint256"
        }
      ],
      "name": "userLotteryTickets",
      "outputs": [
        {
          "internalType": "uint256",
          "name": "",
          "type": "uint256"
        }
      ],
      "stateMutability": "view",
      "type": "function"
    },
    {
      "inputs": [],
      "name": "welcomeBonusAmount",
      "outputs": [
        {
          "internalType": "uint256",
          "name": "",
          "type": "uint256"
        }
      ],
      "stateMutability": "view",
      "type": "function"
    },
    {
      "inputs": [],
      "name": "welcomeBonusEnabled",
      "outputs": [
        {
          "internalType": "bool",
          "name": "",
          "type": "bool"
        }
      ],
      "stateMutability": "view",
      "type": "function"
    },
    {
      "inputs": [
        {
          "internalType": "uint256",
          "name": "_amount",
          "type": "uint256"
        }
      ],
      "name": "withdraw",
      "outputs": [],
      "stateMutability": "nonpayable",
      "type": "function"
    }
  ],
  "bytecode": "0x6080346200041957601f62008b1038819003918201601f191683019291906001600160401b03841183851017620003ab5781602092849260409687528339810103126200041957516001600160a01b0390818116810362000419573315620004015760008054336001600160a01b031982168117835591908416907f8be0079c531659141344cd1fd0a4f28419497f9722a3daafe3b4186f6b6457e09080a360018055624c4b406006819055611388600755633b9aca00600881905584518086016001600160401b03811182821017620003ab578652600381526006602082015260009060005b60028110620003dc57505060095562011940600a55640ba43b7400600b5564012a05f200600c55631dcd6500600d556302faf080600e5562989680600f55620f4240601555601655620c350060175560185562895440601955610e106022556200014f6200041e565b618ca0815261d2f06020820152620127508482015260005b60038110620003c15750506200017c6200041e565b620001866200043e565b60068152654d414e414e4160d01b60208201528152620001a56200043e565b6005815264544152444560d81b60208201526020820152620001c66200043e565b60058152644e4f43484560d81b6020820152848201526028906000905b6003821062000242575050506101f4602b5562989680602c5561010161ffff19602d541617602d551660018060a01b0319601454161760145533600052602160205280600020600160ff19825416179055516186b190816200045f8239f35b80518051906001600160401b038211620003ab578454600181811c91168015620003a0575b60208210146200038a57601f811162000341575b50602090601f8311600114620002cc579282600194936020938695600092620002c0575b5050600019600383901b1c191690841b1786555b01930191019091620001e3565b0151905038806200029f565b908560005260206000209160005b601f198516811062000328575083602093600196938796938794601f198116106200030e575b505050811b018655620002b3565b015160001960f88460031b161c1916905538808062000300565b91926020600181928685015181550194019201620002da565b856000526020600020601f840160051c81016020851062000382575b601f830160051c82018110620003755750506200027b565b600081556001016200035d565b50806200035d565b634e487b7160e01b600052602260045260246000fd5b90607f169062000267565b634e487b7160e01b600052604160045260246000fd5b600190602062ffffff84511693019281602501550162000167565b9091602060019160ff9081865116918560031b92831b921b19161793019101620000e6565b8251631e4fbdf760e01b815260006004820152602490fd5b600080fd5b60405190606082016001600160401b03811183821017620003ab57604052565b60408051919082016001600160401b03811183821017620003ab5760405256fe6080604052600436101561001257600080fd5b60003560e01c806290acd2146162df578062cbdb00146162ae57806303582fc514616255578063061e494f1461612c578063066b935d14615ccb5780630bd26e9214615c065780630be8287e14615bbf5780630cc36c3614615a8e5780631020fd0914615a70578063127590a71461592d5780631290af7b1461549757806316770c79146153f257806318452cd8146153b55780631a65058c146151ea5780631dafc8f414614d3e5780631e36a46b14614d205780631e58a87214614cdf578063209ab71114614bfb57806321874ae21461455a57806321bade1314614b9f57806322189ee2146149cd57806322af00fa1461492057806324def6e1146148d857806326224c64146107705780632997757b146148a25780632d56657d1461482a5780632d8168951461480c5780632e1a7d4d146147655780632faa4bf7146146e25780633013ce29146146b957806332e5b6d81461460657806338da7ead146145e857806339540b0a1461455a57806339988a551461453c57806339d4c70e1461445d5780633f4ba83a146143f35780633fb07a3b146143a9578063410fb08c14614383578063426e438214614365578063429b62e51461432657806343b0f7f0146142e95780634a382514146142cb5780634a4a6b4f146142ad5780634b0bddd2146142255780634d2e259c146140c95780634ecc7ae5146140a3578063554df63414613bff5780635799ee2a146138bc5780635c975abb14613899578063677bd9ff146137445780636826eef4146137235780636922d1e1146136ab578063697ecc6c146131845780636a326ab1146131415780636c188593146131205780636cd425a5146130b75780636ce46bc314613095578063715018a61461303c57806374b2f39314613002578063796c65b314612fc25780637bbdf16314612d055780637cf210f114612ce75780637cfbc7a514612cc65780637daae5bc14612c0e5780638068aa6814612bc45780638456cb5914612b6a57806384ae48b514612aa257806385b16a6e146129c357806388f3ed8c1461296a5780638a0ab2131461294c5780638a502381146128835780638c4d59d0146128655780638da5cb5b1461283c5780638e49792d14612785578063907cb96c1461273b578063911d01891461271d57806392612c4c1461251457806392b5ba0b146124f65780639329066c1461075257806394a4e23e146124d857806394d3cacb1461204157806395ccea6714612004578063989feb9614611f8e5780639c857ff714611f705780639c9ad21a14611eb7578063a0ede5a414611e5a578063a11720ab14611e1c578063a416f5ab14611dfe578063a5c44a6514611c47578063ada6bb3714611aee578063b6b55f2514611a4e578063b7b50352146119dd578063b8349188146119ba578063be6307c8146117da578063bebe329d146117bc578063c9f6707e14611790578063cab11d5d14611772578063cd6eaf1214611754578063d3a2308714611489578063d8cb172314610fa6578063e1fb6d7f14610f6d578063e37adb3c14610f2e578063e74579b114610eae578063e92820e614610e55578063e9715de914610e37578063ee03ac4014610e19578063efc56ba114610dfe578063f194d62514610991578063f2f6de5014610970578063f2fde38b146108ea578063f33ce325146108b3578063f686309e146107aa578063f8b2cb4f14610770578063f9cee0bd14610752578063fa968eea14610734578063fb3a4d21146105445763fecf615d1461052157600080fd5b3461053f57600036600319011261053f576020600c54604051908152f35b600080fd5b3461053f5760208060031936011261053f57600435610561616e86565b80151580610728575b61057390617348565b8060005260108252604060002060ff9182600383015416600481101561071257600361059f91146174bb565b3360005260128452604060002093604051808683829854938481520190600052836000209260005b858282106106fc575050506105de92500386616bf0565b60009260005b86518110156106ba576105f781886171d8565b516000526011835260406000206001858183015414806106ac575b610627575b50506106229061700d565b6105e4565b61063484839894936182fe565b808960058297949b019a60ff199b868d8254161790558c600783019116809c8254161790556006015561066691616daa565b9614916106229261067a575b819250610617565b604051908152857ff75adeadf04a8ca4130d3774f98bdb151c71b80eb8ee92a224bced1c538e9408863393a388610672565b508760058301541615610612565b509150826106c9575b60018055005b6106f291601e600992336000525260406000206106e7858254616daa565b905501918254616daa565b90558080806106c3565b855484526001958601958b9550930192016105c7565b634e487b7160e01b600052602160045260246000fd5b5060035481111561056a565b3461053f57600036600319011261053f576020601554604051908152f35b3461053f57600036600319011261053f576020600554604051908152f35b3461053f57602036600319011261053f576001600160a01b03610791616c64565b16600052601e6020526020604060002054604051908152f35b3461053f57600036600319011261053f57336000526021602081815260ff908160406000205416801561089f575b6107e1906171ec565b6107ed60225442616daa565b9160018093815b6107fa57005b601a54821161089d5781600052601c8452604060002060038101928354918583169460058610156108885787610848948493878c809a149182610879575b505061084e575b5050505061700d565b916107f4565b6000805160206185dc833981519152926002809260ff1916179055604051908152a28089878161083f565b6002015411159050878e610838565b89634e487b7160e01b60005260045260246000fd5b005b506000546001600160a01b031633146107d8565b3461053f57602036600319011261053f576108cf600435617612565b6040805160ff939093168352602083019190915290f35b0390f35b3461053f57602036600319011261053f57610903616c64565b61090b616d3d565b6001600160a01b03908116908115610957576000548260018060a01b0319821617600055167f8be0079c531659141344cd1fd0a4f28419497f9722a3daafe3b4186f6b6457e0600080a3005b604051631e4fbdf760e01b815260006004820152602490fd5b3461053f57602036600319011261053f57610989616d3d565b600435602c55005b3461053f57608036600319011261053f576003602435101561053f576044356001600160401b03811161053f576109cc903690600401616cc4565b6109d4616e86565b6109dc616e68565b600435151580610df0575b6109f090616fcb565b600435600052601c60205260406000209160ff600384015416600581101561071257600103610dbb5760155460643510610d865760165460643511610d515733600052601e602052610a4b6064356040600020541015616f2c565b610a5882826024356177ab565b15610d1a5733600052601e6020526040600020610a786064358254616f6f565b9055610a85601b5461700d565b9283601b5560405193610a9785616b31565b3385526020850190600435825260408601610ab46024358261701c565b610abf368787617028565b606088019081526064356080890152600060a0890181905260c08901819052928352601d6020526040909220875181546001600160a01b0319166001600160a01b03919091161781559251600184015551600283019060038110156107125760ff80198354169116179055519485516001600160401b038111610d0457610b5681610b4d6003860154616a45565b6003860161706e565b6020601f8211600114610c8c57918160c092600694600898999a600092610c81575b50508160011b916000199060031b1c19161760038501555b60808101516004850155610bb960a08201511515600586019060ff801983541691151516179055565b015191015533600052601f602052610bd86040600020601b54906170c2565b60043560005260208052610bf36040600020601b54906170c2565b60078101610c01815461700d565b905501610c116064358254616daa565b9055610c1f6064353361811f565b610c47601b549160405193610c36856024356169f0565b6060602086015260608501916170f7565b9060643560408401527f7bfd70b2e39bfa8d12e1eb9b4f11c090f6f5f716a577414637e6a21b1e7cbbb3600435938033940390a460018055005b015190508a80610b78565b6003840160005260206000209760005b601f1984168110610cec57508260089798996006959360019360c096601f19811610610cd3575b505050811b016003850155610b90565b015160001960f88460031b161c191690558a8080610cc3565b828201518a5560019099019860209283019201610c9c565b634e487b7160e01b600052604160045260246000fd5b60405162461bcd60e51b815260206004820152600f60248201526e496e76616c6964206e756d6265727360881b6044820152606490fd5b60405162461bcd60e51b815260206004820152600d60248201526c10589bdd99481b585e0818995d609a1b6044820152606490fd5b60405162461bcd60e51b815260206004820152600d60248201526c10995b1bddc81b5a5b8818995d609a1b6044820152606490fd5b60405162461bcd60e51b815260206004820152600d60248201526c223930bb903737ba1037b832b760991b6044820152606490fd5b50601a5460043511156109e7565b3461053f57600036600319011261053f576020604051338152f35b3461053f57600036600319011261053f576020601954604051908152f35b3461053f57600036600319011261053f576020602b54604051908152f35b3461053f57604036600319011261053f57610e6e616c64565b6024359060018060a01b03809116600052602f6020526040600020805483101561053f57602092610e9e916169c2565b9190546040519260031b1c168152f35b3461053f57602036600319011261053f57600435600052601160205260e0604060002060018060a01b038154169060018101549060ff600382015416600482015460ff6005840154169160ff6007600686015495015416946040519687526020870152604086015260608501521515608084015260a083015260c0820152f35b3461053f57602036600319011261053f5761089d600435610f4d616d3d565b610f58811515616d69565b601454309033906001600160a01b0316616db7565b3461053f5760a036600319011261053f57610f86616d3d565b600435600b55602435600c55604435600d55606435600e55608435600f55005b3461053f57608036600319011261053f57602480356001600160401b03811161053f57610fd7903690600401616cc4565b6044356001600160401b03811161053f57610ff6903690600401616cc4565b906064356001600160401b03811161053f57611016903690600401616cc4565b92909533600052602160205260ff604060002054168015611475575b61103b906171ec565b600435151580611467575b61104f90616fcb565b600435600052601c60205260406000209060ff600383015416600581101561145257600261107d9114617279565b6002860361141557600383036113d55760048503611397576001600160401b03861161129a576110bd866110b46004850154616a45565b6004850161706e565b856000601f82116001146113295760009161131e575b508660011b906000198860031b1c19161760048301555b6001600160401b03831161129a57600582016111108461110a8354616a45565b8361706e565b836000601f82116001146112b9576000916112ae575b508460011b906000198660031b1c19161790555b60068201906001600160401b03861161129a575061115c8561110a8354616a45565b6000601f861160011461121657926111d7926111e99592876000805160206185fc8339815191529a99989660009161120b575b508660011b906000198860031b1c19161790555b60038060ff198184015416179101556111c96040519788976060895260608901916170f7565b9186830360208801526170f7565b908382036040850152600435966170f7565b0390a2604051600381526000805160206185dc833981519152602060043592a2005b90508b01358c61118f565b601f198616908260005260206000209160005b8b828210611282575050928795926111d795926000805160206185fc8339815191529b9a996111e9999610611268575b5050600186811b0190556111a3565b8c0135600019600389901b60f8161c191690558b80611259565b60018495602093958493013581550194019201611229565b634e487b7160e01b60009081526041600452fd5b90508501358a611126565b60008381526020812092505b601f1987168110611306575085601f198116106112ec575b5050600184811b01905561113a565b860135600019600387901b60f8161c1916905589806112dd565b9091602060018192858b0135815501930191016112c5565b9050870135896110d3565b90506004830160005260206000209060005b601f198916811061137f575087601f19811610611365575b5050600186811b0160048301556110ea565b880135600019600389901b60f8161c191690558880611353565b9091602060018192858d01358155019301910161133b565b60649060176040519162461bcd60e51b835260206004840152820152765061726c6573206d75737420626520342064696769747360481b6044820152fd5b60649060196040519162461bcd60e51b8352602060048401528201527843656e74656e6173206d75737420626520332064696769747360381b6044820152fd5b60649060166040519162461bcd60e51b8352602060048401528201527546696a6f73206d75737420626520322064696769747360501b6044820152fd5b50634e487b7160e01b60009081526021600452fd5b50601a546004351115611046565b506000546001600160a01b03163314611032565b3461053f57602036600319011261053f5733600052602160205260ff604060002054168015611740575b6114bc906171ec565b600435151580611732575b6114d090617348565b6004356000526010602052604060002060ff6003820154166004811015610712576002036116f65761150860028201544210156172bb565b61151360245461700d565b9081602455600781015461153d61154b60088401546040519283916020830195883344428a617517565b03601f198101835282616bf0565b519020916040519261155c84616b68565b60a036853760005b600560ff821610156116585760368206916001830183116116425760081c9460009460005b60ff811660ff85168110156116365760ff6115aa81600189011692866173f4565b5116146115bf576115ba906173d1565b611589565b5091959290945060015b15611610575b5081156115de575b9293611564565b906040516116078161153d86602083019542908791606093918352602083015260408201520190565b519020906115d7565b9460ff600161162f9397011661162960ff8316876173f4565b526173d1565b93856115cf565b505091959290946115c9565b634e487b7160e01b600052601160045260246000fd5b84600a830660ff1685600083815b600581106116d757857fdd641e9a42d92ca7a88aada73d01c8308021d2c63e52ecb3333985cf3fdae35c6116d287878760048201556003806005830160ff199085828254161790558184015416179101556116c2600435618445565b604051918291600435958361743a565b0390a2005b909160206116ed6001928460ff87511691617426565b93019101611666565b60405162461bcd60e51b8152602060048201526014602482015273135d5cdd0818994818db1bdcd95908199a5c9cdd60621b6044820152606490fd5b5060035460043511156114c7565b506000546001600160a01b031633146114b3565b3461053f57600036600319011261053f576020600d54604051908152f35b3461053f57600036600319011261053f576020601654604051908152f35b3461053f57602036600319011261053f57600435600381101561053f5760209060250154604051908152f35b3461053f57600036600319011261053f576020600e54604051908152f35b3461053f57602036600319011261053f5760006101206040516117fc81616b15565b8281526060602082015282604082015282606082015260606080820152606060a0820152606060c08201528260e0820152826101008201520152600435600052601c60205260406000206040519061185382616b15565b805482526040516118728161186b8160018601616a7f565b0382616bf0565b60208301526002810154604083015260ff6003820154169060058210156107125760099160608401526040516118af8161186b8160048601616a7f565b60808401526040516118c88161186b8160058601616a7f565b60a08401526040516118e18161186b8160068601616a7f565b60c0840152600781015460e08401526008810154610100840152015461012082015260405180916020825280516020830152602081015161012061199a61193661014093846040880152610160870190616a20565b6040850151606087015261195260608601516080880190616c1e565b611985611971608087015192601f1993848a83030160a08b0152616a20565b60a0870151838983030160c08a0152616a20565b9060c0860151908783030160e0880152616a20565b9260e0810151610100860152610100810151828601520151908301520390f35b3461053f57600036600319011261053f57602060ff602d54166040519015158152f35b3461053f57602036600319011261053f5760008051602061865c8339815191526040600435611a0a616d3d565b611a15811515616d69565b601454611a30908290309033906001600160a01b0316616db7565b611a3c81600554616daa565b908160055582519182526020820152a1005b3461053f57602036600319011261053f57600435611a6a616e86565b611a72616e68565b611a7d811515616d69565b601454611a98908290309033906001600160a01b0316616db7565b33600052601e6020526040600020611ab1828254616daa565b9055611abc33617fdc565b6040519081527f2da466a7b24304f47e87fa2e1e5a81b9831ce54fec19055ce277ca2f39ba42c460203392a260018055005b3461053f57600036600319011261053f57601a54600060015b82811115611bc45750611b1990617316565b60009160015b81811115611b3557604051806108e68582616c89565b80600052601c60209080825260ff600381816040600020015416926005938481101561071257600114948515611b9f575b5050505050611b7e575b611b799061700d565b611b1f565b92611b978185611b91611b7994876171d8565b5261700d565b939050611b70565b6000878152919052604090200154169150811015610712576002148580808080611b66565b80600052601c60209080825260ff600381816040600020015416926005938481101561071257600114948515611c22575b5050505050611c0d575b611c089061700d565b611b07565b90611c1a611c089161700d565b919050611bff565b6000878152919052604090200154169150811015610712576002148480808080611bf5565b3461053f5760208060031936011261053f57600435611c64616e86565b80151580611df2575b611c7690616fcb565b80600052601c825260406000209060ff90816003840154169260059384811015610712576003611ca69114617197565b33600052601f8552604060002093604051808688829854938481520190600052886000209260005b8a828210611ddc57505050611ce592500386616bf0565b60009160005b8651811015611d7057611cfe81886171d8565b51600052601d88526040600020600186818301541480611d63575b611d2e575b5050611d299061700d565b611ceb565b90611d299295611d5b926006611d448785617dd8565b9384928982019060ff198254161790550155616daa565b939089611d1e565b5087858301541615611d19565b83888382611d7e5760018055005b60009160097f5380cf6fe903b40c6d5a9e0dfbca2f3a423f0a21520b4d5947ed5169bdba946d92338552601e835260408520611dbb878254616daa565b905501611dc9858254616daa565b90556040519384523393a38080806106c3565b855484526001958601958b955093019201611cce565b50601a54811115611c6d565b3461053f57600036600319011261053f576020601b54604051908152f35b3461053f57611e2a366169ac565b90600052602080526040600020805482101561053f57602091611e4c916169c2565b90546040519160031b1c8152f35b3461053f57602036600319011261053f57600435611e76616d3d565b620f42408110611e8557600655005b60405162461bcd60e51b815260206004820152600a602482015269135a5b880c481554d11560b21b6044820152606490fd5b3461053f57602036600319011261053f5760043533600052602160205260ff604060002054168015611f5c575b611eed906171ec565b80151580611f50575b611eff90616fcb565b80600052601c6020526003604060002001805460ff811690600582101561071257611f2e60016002931461723c565b60ff19161790556000805160206185dc833981519152602060405160028152a2005b50601a54811115611ef6565b506000546001600160a01b03163314611ee4565b3461053f57600036600319011261053f576020600a54604051908152f35b3461053f5760208060031936011261053f5760043560005260138152604060002090604051908181845491828152019360005281600020916000905b828210611fed576108e685611fe181890382616bf0565b60405191829182616c89565b835486529485019460019384019390910190611fca565b3461053f57604036600319011261053f5761089d612020616c64565b612028616d3d565b600054602435916001600160a01b039182169116616f7c565b3461053f5761204f366169ac565b90612058616e86565b612060616e68565b801515806124cc575b61207290617348565b811515806124c1575b156124895780600052601060205260406000209060ff6003830154166004811015610712576120ad6001859214617392565b6120b981600654617413565b9133600052601e6020526120d4836040600020541015616f2c565b33600052601e60205260406000206120ed848254616f6f565b90556000915b8083106121575760008051602061865c833981519152604060068761271061212f8960088401612124828254616daa565b905560075490617413565b049061213d82600554616daa565b92839182600555015582519182526020820152a160018055005b6121666024949293945461700d565b9283602455604051904260208301524460408301523360601b60608301528460748301526094868184015282528160c08101106001600160401b0360c084011117610d045760c08297949693970160405281516020830120936121cb60c08401616b68565b60a03660c08501376000935b600560ff861610156122b85760368606956001870187116116425760081c9860009860005b60ff811660ff89168110156122ab5760ff6122208160018d01169260c08b016173f4565b51161461223557612230906173d1565b6121fc565b509299969091985060015b15612288575b508515612256575b9790966121d7565b9460405161227f8161153d8a602083019542908791606093918352602083015260408201520190565b5190209461224e565b9460ff60016122a49397011661162960ff831660c088016173f4565b9389612246565b5050929996909198612240565b9293509596938195506122cc60045461700d565b9384600455604051946122de86616b4c565b33865283602087015260c08201604087015260ff600a8406166060870152426080870152600060a0870152600060c0870152600060e0870152600052601160205260406000209460018060a01b0381511660018060a01b03198754161786556020810151600187015560408101519560009660005b6005811061245a57505061245096600282015560ff60e060076003840193836060870151169484199586825416179055608086015160048201556123ac60a08701511515600583019060ff801983541691151516179055565b60c086015160068201550193015116908254161790553360005260126020526123dc6040600020600454906170c2565b8260005260136020526123f66040600020600454906170c2565b612403600789015461700d565b60078901557f822fb3512bf9bfa01723192be5f296af45d11763805f1be2ccb75a0afc648d9b6124486004549260405191829160c060ff600a3399061691018361743a565b0390a461700d565b91909392936120f3565b919395509193959660206124766001928460ff87511691617426565b9301910190899593919796949297612353565b60405162461bcd60e51b815260206004820152601060248201526f42757920312d3130207469636b65747360801b6044820152606490fd5b50600a82111561207b565b50600354811115612069565b3461053f57600036600319011261053f576020601754604051908152f35b3461053f57600036600319011261053f576020601a54604051908152f35b3461053f5760208060031936011261053f57600435336000526021825260ff80604060002054168015612709575b61254b906171ec565b811515806126fd575b61255d90616fcb565b81600052601c83526003604060002001928354828116946005958681101561071257600381146126be5760041461268557600460ff1980931617905583600052818052604060002094604051808785829954938481520190600052856000209260005b8782821061266f575050506125d792500387616bf0565b60005b865181101561265457806125f161261392896171d8565b51600052601d85526040600020838101908782541615612618575b505061700d565b6125da565b600481015490546001600160a01b03166000908152601e8852604090208054909161264291616daa565b9055600185825416179055888061260c565b856000805160206185dc8339815191528560405160048152a2005b855484526001958601958c9550930192016125c0565b60405162461bcd60e51b8152600481018490526011602482015270105b1c9958591e4818d85b98d95b1b1959607a1b6044820152606490fd5b60405162461bcd60e51b815260048101859052601760248201527610d85b9b9bdd0818d85b98d95b0818dbdb5c1b195d1959604a1b6044820152606490fd5b50601a54821115612554565b506000546001600160a01b03163314612542565b3461053f57600036600319011261053f576020600854604051908152f35b3461053f57604036600319011261053f57612754616c64565b6001600160a01b031660009081526012602052604090208054602435919082101561053f57602091611e4c916169c2565b3461053f57602036600319011261053f5760043533600052602160205260ff604060002054168015612828575b6127bb906171ec565b8015158061281c575b6127cd90616fcb565b80600052601c6020526003604060002001805460ff8116906005821015610712576127fa6001921561723c565b60ff19161790556000805160206185dc833981519152602060405160018152a2005b50601a548111156127c4565b506000546001600160a01b031633146127b2565b3461053f57600036600319011261053f576000546040516001600160a01b039091168152602090f35b3461053f57600036600319011261053f576020600454604051908152f35b3461053f57602036600319011261053f5760043533600052602160205260ff604060002054168015612938575b6128b9906171ec565b8015158061292c575b6128cb90617348565b60005260106020526003604060002001805460ff81166004811015610712576001036128fc5760ff19166002179055005b60405162461bcd60e51b81526020600482015260086024820152672737ba1037b832b760c11b6044820152606490fd5b506003548111156128c2565b506000546001600160a01b031633146128b0565b3461053f57600036600319011261053f576020600654604051908152f35b3461053f57602036600319011261053f57600435612986616d3d565b611f40811161299457600755005b60405162461bcd60e51b81526020600482015260076024820152664d61782038302560c81b6044820152606490fd5b3461053f57600036600319011261053f57601a54600060015b82811115612a5957506129ee90617316565b60009160015b81811115612a0a57604051806108e68582616c89565b80600052601c60205260ff60036040600020015416600581101561071257600114612a3e575b612a399061700d565b6129f4565b92612a518185611b91612a3994876171d8565b939050612a30565b80600052601c60205260ff60036040600020015416600581101561071257600114612a8d575b612a889061700d565b6129dc565b90612a9a612a889161700d565b919050612a7f565b3461053f57600036600319011261053f57612abb616e86565b33600052602e6020526003604060002001548015612b2f5733600052602e60205260006003604082200155601e6020526040600020612afb828254616daa565b90556040519081527f53473e2a2e0cc6840d80567f104277ea6daa0891e5316836bac38a686b79ea3360203392a260018055005b60405162461bcd60e51b81526020600482015260136024820152724e6f2070656e64696e67206561726e696e677360681b6044820152606490fd5b3461053f57600036600319011261053f57612b83616d3d565b612b8b616e68565b600160ff1960025416176002557f62e78cea01bee320cd4e420270b5ea74000d11b0c9f74754ebdbfc544b05a2586020604051338152a1005b3461053f57604036600319011261053f57612bdd616c64565b6001600160a01b03166000908152601f602052604090208054602435919082101561053f57602091611e4c916169c2565b3461053f57612c1c36616d23565b91612c25616d3d565b81811080612cbd575b15612c885762015180831015612c4957602555602655602755005b60405162461bcd60e51b81526020600482015260176024820152764d7573742062652077697468696e20323420686f75727360481b6044820152606490fd5b60405162461bcd60e51b815260206004820152600d60248201526c24b73b30b634b21037b93232b960991b6044820152606490fd5b50828210612c2e565b3461053f57602036600319011261053f57612cdf616d3d565b600435601655005b3461053f57600036600319011261053f576020600754604051908152f35b3461053f57600036600319011261053f5733600052602160205260ff604060002054168015612fae575b612d38906171ec565b612d4460225442616daa565b60015b600354811161089d578060005260106020526040600020600381015460ff811660048110156107125760011480612fa0575b612f8e575b5060ff60038201541660048110156107125760028091149081612f80575b50612db1575b50612dac9061700d565b612d47565b9190612dbe60245461700d565b90816024556007840154604051612de28161153d856020830195883344428a617517565b51902090604051612df281616b68565b60a03682376000915b600560ff84161015612ed35760368406936001850185116116425760081c9660009660005b60ff811660ff8716811015612ec75760ff612e418160018b011692886173f4565b511614612e5657612e51906173d1565b612e20565b5091979490965060015b15612ea7575b508315612e75575b9495612dfb565b92604051612e9e8161153d88602083019542908791606093918352602083015260408201520190565b51902092612e6e565b9260ff6001612ec09395011661162960ff8316856173f4565b9187612e66565b50509197949096612e60565b94956004810194509150600090815b60058110612f615750508360ff8695947fdd641e9a42d92ca7a88aada73d01c8308021d2c63e52ecb3333985cf3fdae35c9460c094612dac999755600380600583019385600a811992061681865416178555818401541617910155612f4686618445565b5416612f55604051809361754c565b60a0820152a290612da2565b90916020612f776001928460ff87511691617426565b93019101612ee2565b905081015442101584612d9c565b60ff1916600217600382015583612d7e565b508360028301541115612d79565b506000546001600160a01b03163314612d2f565b3461053f57600036600319011261053f5760a0600b54600c54600d54600e5490600f54926040519485526020850152604084015260608301526080820152f35b3461053f57602036600319011261053f57600435600281101561053f578060ff60209260051c6009015460f86040519360031b161c168152f35b3461053f57600036600319011261053f57613055616d3d565b600080546001600160a01b0319811682556001600160a01b03167f8be0079c531659141344cd1fd0a4f28419497f9722a3daafe3b4186f6b6457e08280a3005b3461053f576130a336616d23565b916130ac616d3d565b601755601855601955005b3461053f5760208060031936011261053f57600435600052808052604060002090604051908181845491828152019360005281600020916000905b828210613109576108e685611fe181890382616bf0565b8354865294850194600193840193909101906130f2565b3461053f57602036600319011261053f57613139616d3d565b600435601555005b3461053f57602036600319011261053f5761315a616c64565b613162616d3d565b601480546001600160a01b0319166001600160a01b0392909216919091179055005b3461053f57600036600319011261053f5733600052602160205260ff604060002054168015613697575b6131b7906171ec565b6131c360225442616daa565b6001905b601a54821161089d5781600052601c602052604060002091600383015460ff811690600582101561071257600183921480613689575b61365b575b505060ff6003840154166005811015610712576002809114908161364d575b50613238575b61323291925061700d565b906131c7565b61324360245461700d565b80602455600784015460088501546040519160208301934285524460408501523360601b60608501526074840152609483015260b482015260d48381830152815261328d81616b4c565b5190209261329a84617899565b8051906001600160401b038211610d045781906132c7826132be6004870154616a45565b6004870161706e565b602090601f83116001146135db576000926135d0575b50508160011b916000199060031b1c19161760048201555b6133018460401c617925565b9384516001600160401b038111610d045761332c816133236005860154616a45565b6005860161706e565b6020601f821160011461356057819293949596600092613555575b50508160011b916000199060031b1c19161760058301555b61336b8160801c61799d565b8051906001600160401b038211610d04576133968261338d6006870154616a45565b6006870161706e565b602090601f83116001146134bb57938560008051602061861c833981519152819695856000805160206185fc8339815191529661348b966132329b996000926134b0575b50508160011b916000199060031b1c19161760068501555b600360ff1981860154161760038501556040518091608082526134436134326134216080850160048a01616a7f565b848103602086015260058901616a7f565b838103604085015260068801616a7f565b9060608301520390a260405191829160608352600661347c61346b6060860160048501616a7f565b858103602087015260058401616a7f565b91848303604086015201616a7f565b0390a2806000805160206185dc833981519152602060405160038152a2829150613227565b015190508c806133da565b906006850160005260206000209160005b601f198516811061353d57509560008051602061861c8339815191528196929560018661348b9685996132329c6000805160206185fc8339815191529a601f19811610613524575b505050811b0160068501556133f2565b015160001960f88460031b161c191690558c8080613514565b919260206001819286850151815501940192016134cc565b015190508680613347565b6005840160005260206000209060005b601f19841681106135b857506001939495969783601f1981161061359f575b505050811b01600583015561335f565b015160001960f88460031b161c1916905586808061358f565b9091602060018192858c015181550193019101613570565b0151905086806132dd565b9250600484016000526020600020906000935b601f1984168510613632576001945083601f19811610613619575b505050811b0160048201556132f5565b015160001960f88460031b161c19169055868080613609565b818101518355602094850194600190930192909101906135ee565b905083015442101584613221565b60206000805160206185dc833981519152916002809160ff1916176003880155604051908152a28084613202565b5083600286015411156131fd565b506000546001600160a01b031633146131ae565b3461053f5760208060031936011261053f576001600160a01b036136cd616c64565b1660005260128152604060002090604051908181845491828152019360005281600020916000905b82821061370c576108e685611fe181890382616bf0565b8354865294850194600193840193909101906136f5565b3461053f57602036600319011261053f5761373c616d3d565b600435600855005b3461053f5760208060031936011261053f57600435613761616e86565b8015158061388d575b61377390617118565b6000818152601d83526040902080546001600160a01b0316330361385957600581019283546137a560ff821615617159565b6001830154600052601c825260406000209260ff600385015416906005821015610712576001966137da600360069414617197565b6137e48683617dd8565b97889460ff19161790550155836137fb5760018055005b60097f5380cf6fe903b40c6d5a9e0dfbca2f3a423f0a21520b4d5947ed5169bdba946d9233600052601e83526040600020613837878254616daa565b905501613845858254616daa565b90556040519384523393a3808080806106c3565b60405162461bcd60e51b815260048101849052600c60248201526b139bdd081e5bdd5c8818995d60a21b6044820152606490fd5b50601b5481111561376a565b3461053f57600036600319011261053f57602060ff600254166040519015158152f35b3461053f576138ca36616cf1565b33600052602160205260ff604060002054168015613beb575b6138ec906171ec565b42811115613bb0576138ff60035461700d565b9283600355600554600854809110613ba7575b506040519361392085616b68565b60008552600060208601526000604086015260006060860152600060808601526005546040519561395087616b83565b82875261395e368786617028565b6020880152846040880152600160608801526080870152600060a087015260c0860152600060e0860152600061010086015260006101208601526000610140860152600052601060205260406000208451815560208501518051906001600160401b038211610d045781906139e3826139da6001870154616a45565b6001870161706e565b602090601f8311600114613b3557600092613b2a575b50508160011b916000199060031b1c19161760018201555b604085015160028201556060850151600481101561071257613a3690600383016174ff565b60808501519460009560005b60058110613b0b57505081600a610140613ad69360209960047f3433f759b0701674c603c0f151b43eca229255c3b1f6b1437c82de5a4ec6df59989701556005840160ff60a08301511660ff1982541617905560c0810151600685015560e08101516007850155610100810151600885015561012081015160098501550151151591019060ff801983541691151516179055565b600354938493600554613af66040519485946060865260608601916170f7565b918884015260408301520390a2604051908152f35b90966020613b216001928460ff8c511691617426565b98019101613a42565b0151905087806139f9565b9250600184016000526020600020906000935b601f1984168510613b8c576001945083601f19811610613b73575b505050811b016001820155613a11565b015160001960f88460031b161c19169055878080613b63565b81810151835560209485019460019093019290910190613b48565b60055584613912565b60405162461bcd60e51b81526020600482015260136024820152724d757374206265206675747572652074696d6560681b6044820152606490fd5b506000546001600160a01b031633146138e3565b3461053f57613c0d36616cf1565b33600052602160205260ff60406000205416801561408f575b613c2f906171ec565b613c3a601a5461700d565b9283601a5560405193613c4c85616b15565b808552613c5a368584617028565b90602086019182526040860184815260608701906000825260405192613c7f84616b9f565b6000845260808901938452604051613c9681616b9f565b6000815260a08a0152604051613cab81616b9f565b6000815260c08a0152600060e08a015260006101008a015260006101208a0152600052601c602052604060002093885185555180516001600160401b038111610d0457806001870192613d0882613d028654616a45565b8661706e565b602090601f83116001146140295760009261401e575b50508160011b916000199060031b1c19161790555b51600284015551600581101561071257613d509060038401617224565b5180516001600160401b038111610d0457806004840192613d7582613d028654616a45565b602090601f8311600114613fb857600092613fad575b50508160011b916000199060031b1c19161790555b60a085015180516001600160401b038111610d0457806005840192613dc982613d028654616a45565b602090601f8311600114613f4757600092613f3c575b50508160011b916000199060031b1c19161790555b600681019460c08101519586516001600160401b038111610d0457602097613e2682613e208554616a45565b8561706e565b8890601f8311600114613ebe5792826101209360008051602061863c83398151915298979693600996600092613eb3575b50508160011b916000199060031b1c19161790555b60e0810151600785015561010081015160088501550151910155601a54938493613ea36040519384936040855260408501916170f7565b90878301520390a2604051908152f35b015190508c80613e57565b90601f19831691846000528a6000209260005b818110613f2557509360008051602061863c8339815191529897969360099693600193836101209810613f0c575b505050811b019055613e6c565b015160001960f88460031b161c191690558c8080613eff565b92938c600181928786015181550195019301613ed1565b015190508880613ddf565b6000858152602081209350601f198516905b818110613f955750908460019594939210613f7c575b505050811b019055613df4565b015160001960f88460031b161c19169055888080613f6f565b92936020600181928786015181550195019301613f59565b015190508880613d8b565b6000858152602081209350601f198516905b8181106140065750908460019594939210613fed575b505050811b019055613da0565b015160001960f88460031b161c19169055888080613fe0565b92936020600181928786015181550195019301613fca565b015190508b80613d1e565b6000858152602081209350601f198516905b818110614077575090846001959493921061405e575b505050811b019055613d33565b015160001960f88460031b161c191690558b8080614051565b9293602060018192878601518155019501930161403b565b506000546001600160a01b03163314613c26565b3461053f57600036600319011261053f57602060ff602d5460081c166040519015158152f35b3461053f57600036600319011261053f576040516140e681616bd5565b606080913690376040516140f981616bd5565b60005b828110614217576022546023546040519190859060256000855b600382106142015750505061412a84616bd5565b6040519182018281106001600160401b03821117610d045760405260286000835b600382106141dc5750506040519384525060209360c084019060008686015b87600383106141c8575050505060c06080850152936101208401929060005b6003811061419e578580868660a08301520390f35b90919382806141b960019360bf198a8203018b528851616a20565b96019701910195919095614189565b80600192855181520193019101909161416a565b6001602081926040516141f38161186b818a616a7f565b81520193019101909161414b565b6001602081928554815201930191019091614116565b8083602092840152016140fc565b3461053f57604036600319011261053f5761423e616c64565b602435908115159081830361053f577f235bc17e7930760029e9f4d860a2a8089976de5b381cf8380fc11c1d88a11133916142a460209261427d616d3d565b60018060a01b031694856000526021845260406000209060ff801983541691151516179055565b604051908152a2005b3461053f57600036600319011261053f576020600354604051908152f35b3461053f57600036600319011261053f576020600b54604051908152f35b3461053f57602036600319011261053f57614302616c7a565b61430a616d3d565b61ff00602d5491151560081b169061ff00191617602d55600080f35b3461053f57602036600319011261053f576001600160a01b03614347616c64565b166000526021602052602060ff604060002054166040519015158152f35b3461053f57600036600319011261053f576020602254604051908152f35b3461053f57602036600319011261053f5760206143a1600435617581565b604051908152f35b3461053f57602036600319011261053f57600435600381101561053f5761186b6143df6108e69260405192838092602801616a7f565b604051918291602083526020830190616a20565b3461053f57600036600319011261053f5761440c616d3d565b60025460ff81161561444b5760ff19166002557f5db9ee0a495bf2e6ff9c91a7834c1ba4fdd244a5e8aa4e537bd38aeae4b073aa6020604051338152a1005b604051638dfc202b60e01b8152600490fd5b3461053f57600036600319011261053f5760038054600060015b828111156144f4575061448990617316565b9060009260015b828111156144a657604051806108e68682616c89565b80600052601060205260ff8260406000200154166004811015610712576001146144d9575b6144d49061700d565b614490565b936144ec8186611b916144d494886171d8565b9490506144cb565b80600052601060205260ff846040600020015416600481101561071257600114614527575b6145229061700d565b614477565b906145346145229161700d565b919050614519565b3461053f57600036600319011261053f576020602454604051908152f35b3461053f57602036600319011261053f576001600160a01b038061457c616c64565b16600052602e6020526040600020908154166108e66001830154926002810154906003810154600560ff60048401541692015492604051968796879260a094919796959260c0850198600180881b03168552602085015260408401526060830152151560808201520152565b3461053f57600036600319011261053f576020601854604051908152f35b3461053f5760208060031936011261053f576001600160a01b03908161462a616c64565b16600052602f8152604060002060405191828183549182815201908193600052826000209060005b8181106146a35750505083614668910384616bf0565b60405192818401908285525180915260408401929160005b82811061468d5785850386f35b8351871685529381019392810192600101614680565b8254881684529284019260019283019201614652565b3461053f57600036600319011261053f576014546040516001600160a01b039091168152602090f35b3461053f57602036600319011261053f576004356146fe616d3d565b61012c81101580614759575b1561471457602255005b60405162461bcd60e51b815260206004820152601f60248201527f4d757374206265206265747765656e20356d696e20616e642032686f757273006044820152606490fd5b50611c2081111561470a565b3461053f57602036600319011261053f57600435614781616e86565b61478c811515616d69565b33600052601e6020526147a6816040600020541015616f2c565b33600052601e60205260406000206147bf828254616f6f565b90556014546147da90829033906001600160a01b0316616f7c565b6040519081527f7084f5476618d8e60b11ef0d7d3f06914655adb8793e28ff7f018d4c76d505d560203392a260018055005b3461053f57600036600319011261053f576020600f54604051908152f35b3461053f5760208060031936011261053f576001600160a01b0361484c616c64565b16600052601f8152604060002090604051908181845491828152019360005281600020916000905b82821061488b576108e685611fe181890382616bf0565b835486529485019460019384019390910190614874565b3461053f57602036600319011261053f576148bb616c7a565b6148c3616d3d565b60ff8019602d54169115151617602d55600080f35b3461053f57600036600319011261053f5760c06006546007546008546005546003549160045493604051958652602086015260408501526060840152608083015260a0820152f35b3461053f57602036600319011261053f57600435600052601d602052604060002060018060a01b0381541660018201549160ff600282015416604051916149758361496e8160038501616a7f565b0384616bf0565b6149b76004820154936149a6600660ff600586015416940154946040519889988952602089015260408801906169f0565b60e0606087015260e0860190616a20565b926080850152151560a084015260c08301520390f35b3461053f5760208060031936011261053f57604051906149ec82616b83565b600082526060818301526000604083015260006060830152604051614a1081616b68565b60a03682376080830152600060a0830152600060c0830152600060e0830152610100916000838201526101206000818301526000610140809301526004356000526010835260406000209160405191614a6883616b83565b8354835260405195614a8887614a818160018901616a7f565b0388616bf0565b8584019687526002850154946040850195865260ff600382015416936060860194600481101561071257855260405190614ac5826004850161754c565b614ace82616b68565b60808701918252600583015460ff1660a0880190815260068401549260c0890193845260078501549460e08a019586526008810154968a019687526009810154978a01978852600a015460ff1697838a0198151589526040519c8c8e9d9b8e9c8d5251908c0152516101e06040819c01526102008d01614b4d91616a20565b9a5160608d01525160808c01614b6291616c11565b5160a08b01614b7091616c2b565b5160ff16908901525161016088015251610180870152516101a0860152516101c0850152511515908301520390f35b3461053f57602036600319011261053f576001600160a01b03614bc0616c64565b16600052602e6020526080604060002060018101549060036002820154910154602b5491604051938452602084015260408301526060820152f35b3461053f57602036600319011261053f57614c14616c64565b6001600160a01b03614c35828216614c2e33821415616ea9565b1515616eed565b33600052602e60205260406000205416614ca35733600052602e602052600560406000200154614c695761089d9033617ec7565b60405162461bcd60e51b8152602060048201526012602482015271105b1c9958591e481c9959da5cdd195c995960721b6044820152606490fd5b60405162461bcd60e51b815260206004820152601460248201527320b63932b0b23c903430b9903932b332b93932b960611b6044820152606490fd5b3461053f57600036600319011261053f576080602b5460ff602c54602d549060405193845260208401528181161515604084015260081c1615156060820152f35b3461053f57600036600319011261053f576020602c54604051908152f35b3461053f57600036600319011261053f5733600052602160205260ff6040600020541680156151d6575b614d71906171ec565b614d8062015180420642616f6f565b620151808104600481018091116116425760005b60078110614d9e57005b6007614dac82828506616daa565b06816201518081020462015180148215171561164257614ddd614dd462015180840286616daa565b600a5490616daa565b9060038114809181156151cb575b50806151c2575b614e07575b5050614e029061700d565b614d94565b600354600060015b82811115615192575b5015614e25575b50614df7565b614e2e9061700d565b9081600355600554600854809110615189575b501561516757604051614e5381616bba565b60038152624d494560e81b6020820152905b614edb614e7f614e7a62015180870289616daa565b617a58565b92604051809467464f5254554e412d60c01b6020830152602d60f81b8151614eb081602894602086880191016169fd565b830191820152825190614ecc82602995602087850191016169fd565b01036009810185520183616bf0565b60405190614ee882616b68565b600082526000602083015260006040830152600060608301526000608083015260055460405192614f1884616b83565b828452846020850152856040850152600160608501526080840152600060a084015260c0830152600060e083015260006101008301526000610120830152600061014083015260005260106020526040600020908051825560208101518051906001600160401b038211610d04578190614fa282614f996001880154616a45565b6001880161706e565b602090601f83116001146150f5576000926150ea575b50508160011b916000199060031b1c19161760018301555b604081015160028301556060810151600481101561071257614ff590600384016174ff565b608081015160009060005b600581106150cb5750509261509a83600a6101406150b595614e029a999860047f3433f759b0701674c603c0f151b43eca229255c3b1f6b1437c82de5a4ec6df599901556005840160ff60a08301511660ff1982541617905560c0810151600685015560e08101516007850155610100810151600885015561012081015160098501550151151591019060ff801983541691151516179055565b60035493600554604051938493606085526060850190616a20565b91602084015260408301520390a2908480614e1f565b909160206150e16001928460ff87511691617426565b93019101615000565b015190508980614fb8565b9250600185016000526020600020906000935b601f198416851061514c576001945083601f19811610615133575b505050811b016001830155614fd0565b015160001960f88460031b161c19169055898080615123565b81810151835560209485019460019093019290910190615108565b60405161517381616bba565b600381526229a0a160e91b602082015290614e65565b60055586614e41565b80600052601060205284600260406000200154146151b8576151b39061700d565b614e0f565b5050600187614e18565b50428211614df2565b600691501486614deb565b506000546001600160a01b03163314614d68565b3461053f5760208060031936011261053f57600435615207616e86565b801515806153a9575b61521990617477565b6000818152601183526040902080549092906001600160a01b0316330361537357600583019283549061524f60ff831615617159565b600181019283546000526010815260406000209360ff600386015416600481101561071257600361528091146174bb565b600661528c86856182fe565b9485929199600160ff198099161790556007810160ff8b1680988254161790550155826152b95760018055005b60016153319460097f6454b890e6df04ed2b48ec8ba08dddf37aae6d6446859a1291411ecd54b659b29733600052601e865260406000206152fb888254616daa565b905501615309868254616daa565b905514615340575b50506040519182913396836020909392919360ff60408201951681520152565b0390a3808080808080806106c3565b547ff75adeadf04a8ca4130d3774f98bdb151c71b80eb8ee92a224bced1c538e9408604051928484523393a38580615311565b6064906040519062461bcd60e51b82526004820152600f60248201526e139bdd081e5bdd5c881d1a58dad95d608a1b6044820152fd5b50600454811115615210565b3461053f57602036600319011261053f5760206001600160a01b03806153d9616c64565b16600052602e8252604060002054161515604051908152f35b3461053f57604036600319011261053f576004356024356001600160a01b038082169081830361053f57611a989261544c859361542d616e86565b615435616e68565b615440851515616d69565b614c2e33821415616ea9565b33600052602e60205260406000208281541615908161548a575b5061547a575b506014541630903390616db7565b6154849033617ec7565b8461546c565b6005915001541586615466565b3461053f5760e036600319011261053f5760c436811161053f5780359060ff8216820361053f576154c6616e86565b6154ce616e68565b60043515158061591f575b6154e290617348565b6004356000526010602052604060002060ff600382015416600481101561071257600161550f9114617392565b33600052601e6020526040600020549161552e60065480941015616f2c565b600960ff8516116158e15792906000935b60ff8516926005948585101561566857600160ff61556461555f886173e2565b617405565b1610158061564f575b15615613576001850160ff8111611642575b60ff8116878110156155fa5760ff806155a661555f6155a061555f8c6173e2565b946173e2565b169116146155bc576155b7906173d1565b61557f565b60405162461bcd60e51b81526020600482015260166024820152754e756d62657273206d75737420626520756e6971756560501b6044820152606490fd5b505094509461560b919293506173d1565b93919061553f565b60405162461bcd60e51b8152602060048201526014602482015273139d5b58995c9cc81b5d5cdd081899480c4b4d4d60621b6044820152606490fd5b50603660ff61566061555f886173e2565b16111561556d565b839033600052601e6020526156836040600020918254616f6f565b905561569060045461700d565b80600455604051936156a185616b4c565b3385526004356020860152604051906156b982616b68565b6024825b8282106158c957505050604085015260ff83166060850152426080850152600060a0850152600060c0850152600060e0850152600052601160205260406000209160018060a01b0384511660018060a01b0319845416178355602084015160018401556040840151936000805b600581106158aa5750849550600260069501556003850160ff6060830151169060ff1991828254161790556080820151600487015560ff60e0600760a085015115159861578760059a8b83019060ff801983541691151516179055565b60c0860151898201550193015116908254161790553360005260126020526157b66040600020600454906170c2565b60043560005260136020526157d26040600020600454906170c2565b600782016157e0815461700d565b905582546157f360088401918254616daa565b9055612710615806845460075490617413565b0491615813838654616daa565b9384918287550155600454906040519081956024966000905b82821061588a5760ff841660a086015260008051602061865c83398151915260408989600435338b7f822fb3512bf9bfa01723192be5f296af45d11763805f1be2ccb75a0afc648d9b60c08da482519182526020820152a160018055005b60208060019260ff61589b8d616c56565b1681520199019101909761582c565b9060206158bf6001928460ff8b511691617426565b970196910161572a565b602080916158d684616c56565b8152019101906156bd565b60405162461bcd60e51b81526020600482015260166024820152754b6579206e756d626572206d75737420626520302d3960501b6044820152606490fd5b5060035460043511156154d9565b3461053f57602036600319011261053f57600060e060405161594e81616b4c565b82815282602082015260405161596381616b68565b60a036823760408201528260608201528260808201528260a08201528260c082015201526004356000526011602052610180604060002060ff604051916159a983616b4c565b8260018060a01b0391828154168252600181015460208301908152846040516159d5816002860161754c565b6159de81616b68565b60408501908152615a48826003860154169160608701928352600486015494608088019586528460078160058a0154169860a08b019915158a5260c060068201549b019a8b520154169860e08c01998a526040519b51168b525160208b01525160408a0190616c2b565b511660e087015251610100860152511515610120850152516101408401525116610160820152f35b3461053f57600036600319011261053f576020602354604051908152f35b3461053f57602036600319011261053f57600435600052601c602052604060002080546040519182806001830190615ac591616a7f565b03615ad09084616bf0565b600281015490600381015460ff169060405180806004840190615af291616a7f565b03615afd9082616bf0565b60405180615b0e8160058601616a7f565b03615b199082616bf0565b6040519182615b2b8160068701616a7f565b03615b369084616bf0565b6007840154956008850154946009015495604051998a998a526101408060208c01528a01615b6391616a20565b9160408a015260608901615b7691616c1e565b8781036080890152615b8791616a20565b86810360a0880152615b9891616a20565b85810360c0870152615ba991616a20565b9260e08501526101008401526101208301520390f35b3461053f57600036600319011261053f57615bfc615bdb61769c565b91939060405194859485526020850152608060408501526080840190616a20565b9060608301520390f35b3461053f57602036600319011261053f5760043560005260106020526040600020805460405191615c3e8361496e8160018501616a7f565b60028101549060ff6003820154169060ff6005820154166006820154600783015490600884015492615ca560ff600a60098801549701541696615c956040519b8c9b8c5260208c61014091829101528c0190616a20565b9860408b015260608a0190616c11565b608088015260a087015260c086015260e085015261010084015215156101208301520390f35b3461053f57602036600319011261053f5733600052602160205260ff604060002054168015616118575b615cfe906171ec565b60043515158061610a575b615d1290616fcb565b600435600052601c602052604060002060ff6003820154166005811015610712576002615d3f9114617279565b615d4f60028201544210156172bb565b615d5a60245461700d565b8060245560078201546008830154600019430190438211611642576040519260208401944286524460408601523360601b60608601526074850152609484015260b48301524060d482015260d48152615db281616b4c565b519020615dbe81617899565b90615dcb8160401c617925565b90615dd88160801c61799d565b9383516001600160401b038111610d0457615dfa816110b46004850154616a45565b806020601f821160011461609d57600091616092575b508160011b916000199060031b1c19161760048201555b82516001600160401b038111610d0457615e5181615e486005850154616a45565b6005850161706e565b806020601f82116001146160255760009161601a575b508160011b916000199060031b1c19161760058201555b84516001600160401b038111610d0457615ea881615e9f6006850154616a45565b6006850161706e565b6020601f8211600114615f9357936000805160206185fc83398151915295936111e99383615f7794615f6998600091615f88575b508160011b916000199060031b1c19161760068201555b60038060ff1981840154161791015560008051602061861c83398151915260405160808152615f47615f39615f2b608084018a616a20565b838103602085015286616a20565b82810360408401528b616a20565b92606082015280600435930390a2604051948594606086526060860190616a20565b908482036020860152616a20565b828103604084015260043595616a20565b90508a01518b615edc565b601f198216906006840160005260206000209160005b818110616002575093600184615f6998946000805160206185fc8339815191529a9894615f77976111e99910615fe9575b5050811b016006820155615ef3565b8c015160001960f88460031b161c191690558b80615fda565b9192602060018192868d015181550194019201615fa9565b905084015187615e67565b91506005830160005260206000206000925b601f198316841061607a576001935082601f19811610616061575b5050811b016005820155615e7e565b86015160001960f88460031b161c191690558780616052565b86810151825560209384019360019092019101616037565b905085015187615e10565b91506004830160005260206000206000925b601f19831684106160f2576001935082601f198116106160d9575b5050811b016004820155615e27565b87015160001960f88460031b161c1916905587806160ca565b878101518255602093840193600190920191016160af565b50601a546004351115615d09565b506000546001600160a01b03163314615cf5565b3461053f5760208060031936011261053f57600060c060405161614e81616b31565b82815282848201528260408201526060808201528260808201528260a08201520152600435600052601d815260406000206040519061618c82616b31565b60018060a01b039283825416835260018201549181840192835261623c60ff6002830154166161bf60408701918261701c565b616229604051916161d78361496e8160038901616a7f565b6060880192835260048501549660808901978852600660ff6005880154169660a08b01971515885201549660c08a019788526040519a8b9a828c525116908a01525160408901525160608801906169f0565b5160e06080870152610100860190616a20565b925160a085015251151560c08401525160e08301520390f35b3461053f57602036600319011261053f57600435616271616d3d565b6103e8811161627f57602b55005b60405162461bcd60e51b81526020600482015260076024820152664d61782031302560c81b6044820152606490fd5b3461053f576162bc366169ac565b9060005260136020526040600020805482101561053f57602091611e4c916169c2565b3461053f57600036600319011261053f5733600052602160205260ff604060002054168015616998575b616312906171ec565b61632162015180420642616f6f565b8060235410156169535760005b600381101561694d57616345816025015483616daa565b42811161635c575b506163579061700d565b61632e565b616367601a5461700d565b80601a5561637484617a58565b906040519161638c81518092602080870191016169fd565b602d60f81b602082850101528260008660280154926163aa84616a45565b936001811690811561692a57506001146168e2575b506163d3925003601f198101845283616bf0565b6040516163df81616b15565b81815260208101918383528460408301526001606083015260405161640381616b9f565b60008152608083015260405161641881616b9f565b6000815260a083015260405161642d81616b9f565b6000815260c0830152600060e083015260006101008301526000610120830152600052601c60205260406000209181518355518051906001600160401b038211610d0457819061648482614f996001880154616a45565b602090601f831160011461687057600092616865575b50508160011b916000199060031b1c19161760018301555b6040810151600283015560608101516005811015610712576164d79060038401617224565b60808101518051906001600160401b038211610d04578190616509826165006004880154616a45565b6004880161706e565b602090601f83116001146167f3576000926167e8575b50508160011b916000199060031b1c19161760048301555b60a08101518051906001600160401b038211610d04578190616569826165606005880154616a45565b6005880161706e565b602090601f83116001146167765760009261676b575b50508160011b916000199060031b1c19161760058301555b60c08101518051906001600160401b038211610d04576165be8261338d6006870154616a45565b602090601f83116001146166bb579360096101207fc46ebbfeb5e2e07c8e4d37aefab8218992bef4f593d8537653d96385a95415ca95856163579b9a9660008051602061863c8339815191529a966166669a6000926166b0575b50508160011b916000199060031b1c19161760068501555b60e0810151600785015561010081015160088501550151910155601a549485948592604051918291604083526040830190616a20565b8560208301520390a26040518091604082526166886040830188602801616a7f565b9060208301520390a26000805160206185dc833981519152602060405160018152a29061634d565b015190508e80616618565b906006850160005260206000209160005b601f198516811061675357506101207fc46ebbfeb5e2e07c8e4d37aefab8218992bef4f593d8537653d96385a95415ca9560018660008051602061863c8339815191529a966166669a966009966163579f9e9a601f1981161061673a575b505050811b016006850155616630565b015160001960f88460031b161c191690558e808061672a565b919260206001819286850151815501940192016166cc565b01519050888061657f565b9250600585016000526020600020906000935b601f19841685106167cd576001945083601f198116106167b4575b505050811b016005830155616597565b015160001960f88460031b161c191690558880806167a4565b81810151835560209485019460019093019290910190616789565b01519050888061651f565b9250600485016000526020600020906000935b601f198416851061684a576001945083601f19811610616831575b505050811b016004830155616537565b015160001960f88460031b161c19169055888080616821565b81810151835560209485019460019093019290910190616806565b01519050888061649a565b9250600185016000526020600020906000935b601f19841685106168c7576001945083601f198116106168ae575b505050811b0160018301556164b2565b015160001960f88460031b161c1916905588808061689e565b81810151835560209485019460019093019290910190616883565b90508660280160005260206000206000905b84821061690e5750506163d39260219183010101886163bf565b80546021848901840101528693506020909101906001016168f4565b602193506163d395915060ff1916838386010152801515029083010101886163bf565b50602355005b60405162461bcd60e51b815260206004820152601f60248201527f447261777320616c7265616479206372656174656420666f7220746f646179006044820152606490fd5b506000546001600160a01b03163314616309565b604090600319011261053f576004359060243590565b80548210156169da5760005260206000200190600090565b634e487b7160e01b600052603260045260246000fd5b9060038210156107125752565b60005b838110616a105750506000910152565b8181015183820152602001616a00565b90602091616a39815180928185528580860191016169fd565b601f01601f1916010190565b90600182811c92168015616a75575b6020831014616a5f57565b634e487b7160e01b600052602260045260246000fd5b91607f1691616a54565b9060009291805491616a9083616a45565b918282526001938481169081600014616af25750600114616ab2575b50505050565b90919394506000526020928360002092846000945b838610616ade575050505001019038808080616aac565b805485870183015294019385908201616ac7565b9294505050602093945060ff191683830152151560051b01019038808080616aac565b61014081019081106001600160401b03821117610d0457604052565b60e081019081106001600160401b03821117610d0457604052565b61010081019081106001600160401b03821117610d0457604052565b60a081019081106001600160401b03821117610d0457604052565b61016081019081106001600160401b03821117610d0457604052565b602081019081106001600160401b03821117610d0457604052565b604081019081106001600160401b03821117610d0457604052565b606081019081106001600160401b03821117610d0457604052565b90601f801991011681019081106001600160401b03821117610d0457604052565b9060048210156107125752565b9060058210156107125752565b6000915b60058310616c3c57505050565b60019060ff83511681526020809101920192019190616c2f565b359060ff8216820361053f57565b600435906001600160a01b038216820361053f57565b60043590811515820361053f57565b6020908160408183019282815285518094520193019160005b828110616cb0575050505090565b835185529381019392810192600101616ca2565b9181601f8401121561053f578235916001600160401b03831161053f576020838186019501011161053f57565b604060031982011261053f57600435906001600160401b03821161053f57616d1b91600401616cc4565b909160243590565b606090600319011261053f57600435906024359060443590565b6000546001600160a01b03163303616d5157565b60405163118cdaa760e01b8152336004820152602490fd5b15616d7057565b60405162461bcd60e51b81526020600482015260126024820152710416d6f756e74206d757374206265203e20360741b6044820152606490fd5b9190820180921161164257565b6040516323b872dd60e01b60208201526001600160a01b039283166024820152929091166044830152606480830193909352918152616dfe91616df982616b68565b616e00565b565b906000602091828151910182855af115616e5c576000513d616e5357506001600160a01b0381163b155b616e315750565b604051635274afe760e01b81526001600160a01b039091166004820152602490fd5b60011415616e2a565b6040513d6000823e3d90fd5b60ff60025416616e7457565b60405163d93c066560e01b8152600490fd5b600260015414616e97576002600155565b604051633ee5aeb560e01b8152600490fd5b15616eb057565b60405162461bcd60e51b815260206004820152601560248201527421b0b73737ba103932b332b9103cb7bab939b2b63360591b6044820152606490fd5b15616ef457565b60405162461bcd60e51b815260206004820152601060248201526f24b73b30b634b2103932b332b93932b960811b6044820152606490fd5b15616f3357565b60405162461bcd60e51b8152602060048201526014602482015273496e73756666696369656e742062616c616e636560601b6044820152606490fd5b9190820391821161164257565b60405163a9059cbb60e01b60208201526001600160a01b03909216602483015260448083019390935291815260808101916001600160401b03831182841017610d0457616dfe92604052616e00565b15616fd257565b60405162461bcd60e51b8152602060048201526013602482015272111c985dc8191bd95cc81b9bdd08195e1a5cdd606a1b6044820152606490fd5b60001981146116425760010190565b60038210156107125752565b9291926001600160401b038211610d045760405191617051601f8201601f191660200184616bf0565b82948184528183011161053f578281602093846000960137010152565b90601f811161707c57505050565b600091825260208220906020601f850160051c830194106170b8575b601f0160051c01915b8281106170ad57505050565b8181556001016170a1565b9092508290617098565b8054600160401b811015610d04576170df916001820181556169c2565b819291549060031b91821b91600019901b1916179055565b908060209392818452848401376000828201840152601f01601f1916010190565b1561711f57565b60405162461bcd60e51b815260206004820152601260248201527110995d08191bd95cc81b9bdd08195e1a5cdd60721b6044820152606490fd5b1561716057565b60405162461bcd60e51b815260206004820152600f60248201526e105b1c9958591e4818db185a5b5959608a1b6044820152606490fd5b1561719e57565b60405162461bcd60e51b8152602060048201526012602482015271111c985dc81b9bdd0818dbdb5c1b195d195960721b6044820152606490fd5b80518210156169da5760209160051b010190565b156171f357565b60405162461bcd60e51b81526020600482015260096024820152682737ba1030b236b4b760b91b6044820152606490fd5b9060058110156107125760ff80198354169116179055565b1561724357565b60405162461bcd60e51b815260206004820152600e60248201526d496e76616c69642073746174757360901b6044820152606490fd5b1561728057565b60405162461bcd60e51b8152602060048201526013602482015272111c985dc81b5d5cdd0818994818db1bdcd959606a1b6044820152606490fd5b156172c257565b60405162461bcd60e51b8152602060048201526015602482015274111c985dc81d1a5b59481b9bdd081c995858da1959605a1b6044820152606490fd5b6001600160401b038111610d045760051b60200190565b90617320826172ff565b61732d6040519182616bf0565b828152809261733e601f19916172ff565b0190602036910137565b1561734f57565b60405162461bcd60e51b815260206004820152601b60248201527a131bdd1d195c9e48191c985dc8191bd95cc81b9bdd08195e1a5cdd602a1b6044820152606490fd5b1561739957565b60405162461bcd60e51b815260206004820152601060248201526f2637ba3a32b93c903737ba1037b832b760811b6044820152606490fd5b60ff1660ff81146116425760010190565b60058110156169da5760051b60240190565b9060058110156169da5760051b0190565b3560ff8116810361053f5790565b8181029291811591840414171561164257565b9060ff809160031b9316831b921b19161790565b60c0810193929091600090835b6005831061745d5750505060ff60a09116910152565b60019060ff83511681526020809101920192019190617447565b1561747e57565b60405162461bcd60e51b8152602060048201526015602482015274151a58dad95d08191bd95cc81b9bdd08195e1a5cdd605a1b6044820152606490fd5b156174c257565b60405162461bcd60e51b8152602060048201526015602482015274131bdd1d195c9e481b9bdd0818dbdb5c1b195d1959605a1b6044820152606490fd5b9060048110156107125760ff80198354169116179055565b9492909160b49694928652602086015260018060601b03199060601b1660408501526054840152607483015260948201520190565b60ff608091548181168452818160081c166020850152818160101c166040850152818160181c16606085015260201c16910152565b80151580617606575b61759390617118565b6000908152601d602052604081209060018201548152601c602052604081209060ff60038301541660058110156175f2576003036175ec575060ff6005830154166175e4576175e191617dd8565b90565b506006015490565b91505090565b634e487b7160e01b82526021600452602482fd5b50601b5481111561758a565b9081151580617690575b61762590617477565b600091825260116020526040822091600183015481526010602052604081209060ff60038301541660048110156175f257600303617689575060ff6005840154166176785761767491926182fe565b9091565b50600660ff60078401541692015490565b9250508190565b5060045482111561761c565b60008019600190819060038054925b8381111561770f5750505050816176db575050600554906000906040516176d181616b9f565b6000815290600090565b90916005549083600052601060205260406000209261770b600285015493959461186b6040518094819301616a7f565b9190565b80600052601060209080825260409160ff8584600020015416600480821015617785575088148061776e575b617751575b50505061774c9061700d565b6176ab565b6000848152919052206002015490955091508461774c3880617740565b50836000528181528560028460002001541061773b565b602190634e487b7160e01b6000525260246000fd5b9081518110156169da570160200190565b91906177b8913691617028565b60038210156107125781158061788d575b6178665760019182811480617881575b617879576002148061786d575b61786657819060009081935b6177fe575b5050905090565b8051841015617861576001600160f81b0319600360fc1b81617820878561779a565b511610908115617847575b506178405761783a839461700d565b936177f2565b5091505090565b603960f81b9150617858868461779a565b5116113861782b565b6177f7565b5050600090565b506004815114156177e6565b505050600090565b506003825114156177d9565b506002815114156177c9565b60649006604051906178aa82616bba565b6002825260203681840137600290815b6178c357505090565b600a9060308282068101809111617910576000198401908482116179105760f81b6001600160f81b03191660001a906178fc908661779a565b5304908015617910576000190190816178ba565b60246000634e487b7160e01b81526011600452fd5b6103e890066040519061793782616bba565b6003825260203681840137600390815b61795057505090565b600a9060308282068101809111617910576000198401908482116179105760f81b6001600160f81b03191660001a90617989908661779a565b530490801561791057600019019081617947565b6127109006604051906179af82616bba565b6004808352602036818501378091825b6179c95750505090565b600a9060308282068101809111617a4257600019850190858211617a2c5760f81b6001600160f81b03191660001a90617a02908761779a565b5304918015617a16576000190191826179bf565b634e487b7160e01b600090815260118352602490fd5b634e487b7160e01b600090815260118652602490fd5b634e487b7160e01b600090815260118552602490fd5b620151809004620afa6c81018091116116425762023ab1808204818102928115928285041483171561164257617ac093617a9191616f6f565b90617aae617aa36105b4840484616f6f565b618eac840490616daa565b61016d94859162023ab0850490616f6f565b049261019080830292830414171561164257617adc9083616daa565b92828102908104830361164257826064617b00617b0893617b0e9660021c90616daa565b910490616f6f565b90616f6f565b80600502600581048203611642576002810180911161164257609990049081609902906099820483036116425760028201809211611642576005617b53920490616f6f565b906001820180921161164257600a90600082821015617db157506003810180911161164257925b6002841115617d8f575b60405193617b9185616bba565b82855260208501936020368637603093806103e8850406850193848611611642578751156169da576001600160f81b03199660f895861b881660001a90538160648204068601808711611642578851600110156169da57851b871660001a60218901538180820406860190818711611642578851600210156169da57878392871b1660001a60228a0153068501808611611642578751600310156169da57841b861660001a6023880153865191600492831015617d7a57602493602d858a015382808204068701808811617d6657895160051015617d525790888492881b1660001a60258b0153068601808711617d2a57885160061015617d1657851b871660001a6026890153875160071015617d3e57602d602789015381808204068601808711617d2a57885160081015617d1657851b871660001a6028890153068401809411617d0357855160091015617cf05750501b1660001a602982015390565b603290634e487b7160e01b600052526000fd5b601190634e487b7160e01b600052526000fd5b84603285634e487b7160e01b600052526000fd5b84601185634e487b7160e01b600052526000fd5b83603284634e487b7160e01b600052526000fd5b85603286634e487b7160e01b600052526000fd5b85601186634e487b7160e01b600052526000fd5b603283634e487b7160e01b6000525260246000fd5b6001810180911115617b8457634e487b7160e01b600052601160045260246000fd5b6008198201918211617dc4575092617b7a565b634e487b7160e01b81526011600452602490fd5b9060008060ff60028501541660038110156175f25780617e4e575050506004617e26604051617e0e8161186b8160038901616a7f565b602081519101209261186b6040518094819301616a7f565b602081519101201490601754915b1561786657612710916004617e4a920154617413565b0490565b60018103617e84575050506005617e72604051617e0e8161186b8160038901616a7f565b60208151910120149060185491617e34565b9193929091600214617e97575b50617e34565b919250506006617eb4604051617e0e8161186b8160038901616a7f565b6020815191012014906019549138617e91565b60ff602d5460081c1615617f9c576001600160a01b039081166000818152602e602052604080822080546001600160a01b0319169585169586178155426005909101558482528120600101805492939192617f219061700d565b9055838252602f60205260408220805490600160401b821015617f885781617f719160017f5f1ca2fcc108b751843a763e60d2201f593516109d7dbb1b700468f2d4190bb79695940181556169c2565b819291549060031b9186831b921b191617905580a3565b634e487b7160e01b84526041600452602484fd5b60405162461bcd60e51b8152602060048201526018602482015277149959995c9c985b081cde5cdd195b48191a5cd8589b195960421b6044820152606490fd5b60ff602d54161561811c5760018060a01b0380911690600090828252602090602e825260409060ff600483862001541661811557602c54801561810d5783602492601454168451938480926370a0823160e01b82523060048301525afa9182156181035785926180ce575b506180599061805461826f565b616daa565b106180645750505050565b82847f7ded0e54be7fbb9cb6364352182eb8d09829aaab2e13b4c89080d5fe3a0f263b9452602e835281812060048101600160ff198254161790556005429101556180ba82602c5492601e865220918254616daa565b9055602c549051908152a238808080616aac565b9091508381813d83116180fc575b6180e68183616bf0565b810103126180f8575190618059618047565b8480fd5b503d6180dc565b83513d87823e3d90fd5b505050505050565b5050505050565b50565b9060ff602d5460081c161561826b5760018060a01b0380921691600090838252602090602e8252604081818520541694851561825857602b54908115618261576127109161816c91617413565b049182156182585783602491601454168351928380926370a0823160e01b82523060048301525afa90811561824e578591618221575b506181af8361805461826f565b106181bc57505050505050565b60028185877fa6d05371a3daec878bf8c7ed5a16dbc19f0595497358c6beacf4c90478f1a74b9752602e86526003828220016181f9868254616daa565b9055878152602e8652200161820f838254616daa565b905551908152a338808080808061810d565b90508381813d8311618247575b6182388183616bf0565b810103126180f85751386181a2565b503d61822e565b82513d87823e3d90fd5b50505050505050565b5050505050505050565b5050565b6014546040516370a0823160e01b815230600482015290602090829060249082906001600160a01b03165afa908115616e5c576000916182b1575b5060011c90565b906020823d82116182dd575b816182ca60209383616bf0565b810103126182da575051386182aa565b80fd5b3d91506182bd565b91909160058310156169da57601f908360051c01921690565b91600090815b600560ff8181841610156183895760005b8282821610618330575b50505061832b906173d1565b618304565b818061833f8660028c016182e5565b90549061834f8560048d016182e5565b949054600395861b1c16931b1c16146183705761836b906173d1565b618315565b5050509161838061832b916173d1565b9290388061831f565b5050509260ff60038192949394015416816005840154161492166005811480809161843e575b156183c257505060060154600192909150565b909150156183d4575050600b54600291565b600481148080618437575b156183f157505050600c549060039190565b15618400575050600d54600491565b6003148091819261842f575b501561841b5750600e54600591565b61842757600090600090565b600f54600691565b90503861840c565b50826183df565b50836183af565b90600091825260206010815260409081842093601382528281209280519384848254918281520191845284842090845b8181106185c7575050508461848b910385616bf0565b81809560048801935b86518810156185b957926184a888886171d8565b51835260118652808320958397849560028901965b600560ff81818416101561854257885b8b8b84848416106184ec575b50505050506184e7906173d1565b6184bd565b8391836185066184fd8986956182e5565b929054936182e5565b949054600395861b1c16931b1c161461852757618522906173d1565b6184cd565b505050996185376184e7916173d1565b9a9038808b8b6184d9565b505050979194989093999295506005908160ff8092161492836185a2575b50505061857a576185709061700d565b9690959194618494565b505050505050509060015b61858c5750565b600a01805460ff19166001179055600854600555565b819293506003015416918b01541614388080618560565b955096955050505050618585565b82548452928601926001928301920161847556fe3fb14dcb75745b2fd6b729f1f6d005ff458435f4113b58be6e3dbf69cbcd394a4cab5e734ebef082a0255b7313875fe2004541b62282a13fb40201e6d55a70b85a13cb887ae34b9e699d260846ef94661ec8e43cf0e192e641366895e8cd1f7b7422a3316e28b0bc364bf8dada8bba9e211cb7a96513c7741e5af87b4ebf451fb0d06ccaa4821f41669bcc9a049d35783663cd32e846ae89a27dc9835330ce1aa2646970667358221220ff0087b2df0f4fcc752bf68b3ce8f0bc21ae8af9fbf3008b797e9a41e64af3ab64736f6c63430008140033",
  "linkReferences": {},
  "deployedLinkReferences": {}
}